:1000000000300020490600008D0600009106000027
:1000100000000000000000000000000000000000E0
:100020000000000000000000000000009506000035
:100030000000000000000000990600009D0600007E
:10004000A1060000A5060000A9060000AD060000FC
:100050008906000089060000890600008906000064
:10006000B1060000B5060000B9060000BD0600009C
:10007000C1060000C5060000C90600008906000090
:100080008906000089060000890600008906000034
:100090008906000089060000890600008906000024
:1000A0008906000089060000890600008906000014
:1000B0008906000089060000890600008906000004
:10040000FFFFFFFFFFFFFFFFFFFFFFFFFE3DFFFFBF
:1004100010B5064C2378002B07D1054B002B02D0DA
:10042000044800E000BF0123237010BD68F0FF1FE7
:1004300000000000782B000008B5084B002B03D00B
:100440000748084900E000BF07480368002B03D0B5
:10045000064B002B00D0984708BDC04600000000A6
:10046000782B00006CF0FF1F64F0FF1F00000000FD
:10047000164B002B00D1144B9D46402292029A1A33
:10048000924600218B460F461348144A121A01F077
:1004900043FE0F4B002B00D098470E4B002B00D093
:1004A00098470020002104000D000D48002802D0CC
:1004B0000C4800E000BF01F009FE2000290001F017
:1004C000C9F901F0EDFDC046000008000030002031
:1004D000000000000000000068F0FF1F00F2FF1F96
:1004E0000000000000000000002934D00123002299
:1004F00010B488422CD301242407A14204D28142A3
:1005000002D209011B01F8E7E400A14204D28142B2
:1005100002D249005B00F8E7884201D3401A1A432F
:100520004C08A04202D3001B5C0822438C08A04266
:1005300002D3001B9C082243CC08A04202D3001B1C
:10054000DC082243002803D01B0901D00909E3E796
:10055000101C10BC7047002801D00020C04307B415
:10056000024802A14018029003BDC046D900000015
:100570000029F0D003B5FFF7B9FF0EBC4243891A3A
:100580001847C046002941D010B4041C4C40A44672
:1005900001230022002900D54942002800D540420D
:1005A00088422CD301242407A14204D2814202D2E2
:1005B00009011B01F8E7E400A14204D2814202D202
:1005C00049005B00F8E7884201D3401A1A434C08FF
:1005D000A04202D3001B5C0822438C08A04202D335
:1005E000001B9C082243CC08A04202D3001BDC085D
:1005F0002243002803D01B0901D00909E3E7101C9E
:100600006446002C00D5404210BC7047002806D03C
:1006100003DB0020C043400801E08020000607B44F
:10062000024802A14018029003BDC0461900000014
:100630000029EBD003B5FFF7A7FF0EBC4243891A90
:100640001847C0467047C04672B60848084901605E
:10065000084880470849094A094B9B1A03DD043BB7
:10066000C858D050FBDC62B60648804708ED00E071
:100670000000000099170000A02B000000F0FF1FF1
:1006800068F0FF1F71040000104800471048004741
:1006900010480047104800471048004710480047DE
:1006A00010480047104800471048004710480047CE
:1006B00010480047104800471048004710480047BE
:1006C00010480047104800471048004789060000BE
:1006D0008D060000910600009506000099060000B6
:1006E0009D0600002D150000451500005D15000059
:1006F000751500001913000039130000F90C0000F3
:10070000350D0000AD0E0000D10E0000C114000038
:1007100080B582B000AF7860084A0849084BC958D4
:10072000084B19407B689806C0231B0503401943FA
:10073000034BD150BD4602B080BDC046007004409E
:1007400004100000FFFFFFF380B582B000AF01206E
:10075000FFF7DEFF00F030FF031C7B600549E1235B
:100760005A027B68081C111C022201F07DF9BD466B
:1007700002B080BD0040054080B500AF024A034B87
:100780000349D150BD4680BD0070044044100000B4
:100790000000031080B584B000AF3A1C0832104B43
:1007A000111C1A1C0623081C111C1A1C01F068FCE1
:1007B0003B1C00221A703B1C802252025A60FFF739
:1007C000DBFF3B1C0833181C00F012FF3B1C181CFD
:1007D00000F0DCFE034B044A1A60BD4604B080BD45
:1007E0000422000000F0FF1F006CDC0290B585B011
:1007F00000AF78607B681B0C084A9B18FB60FB68A5
:10080000FA6811687A681204120C0120041C9440E2
:10081000221C0A431A60BD4605B090BD007004401A
:1008200080B584B000AFF860B960FB1D1A70FB683A
:10083000BA689200D258084B1A40FB1D1B78190267
:10084000E023DB000B40111C1943FB68BA689200DF
:10085000D150BD4604B080BDFFF8FFFF80B500AFAA
:100860000D4B181CFFF7C2FF0C4B181CFFF7BEFF07
:100870000B4B181C0D210122FFF7D2FF094B181C4E
:1008800012210122FFF7CCFF064B181C1321012275
:10089000FFF7C6FFBD4680BD090038100A003810BA
:1008A0000090044000A0044090B585B000AF78608F
:1008B0007B681B0C084A9B18FB60FB68FA68116890
:1008C0007A681204120C0120041C9440221C0A4372
:1008D0001A60BD4605B090BD0070044080B584B07C
:1008E00000AF78600323BB600023FB6009E00F4B7F
:1008F000FA689200D2587B689A4206D0FB680133AE
:10090000FB60FA68BB689A42F1D3FA68BB689A4206
:1009100006D30749074A084B081CA92100F0F8FE36
:10092000FB68181CBD4604B080BDC0460C2B0000FF
:1009300010230000242B00002823000080B588B07D
:1009400000AFF860B9607A60BB68002B06D17A49C5
:100950007A4A7B4B081CD42100F0DAFEBB681B6886
:10096000002B06D17449754A764B081CD52100F03E
:10097000CFFE3B1C1E3300221A803B1C1D3300227D
:100980001A700023BB61BB681B681B017868191CC7
:10099000FFF7AAFD031C1A1C3B1C1E331A803B1CCC
:1009A0001E331B88002B03D13B1C1E3301221A80EF
:1009B00000237B617B685A00BB681B68101C191CF4
:1009C000FFF792FD031C99B23B1C1E331B882022AB
:1009D000524253439AB23B1C12338A181A807B68E6
:1009E0005A003B1C1E331B8859013B1C12331B88C9
:1009F000CB18101C191CFFF777FD031C7B61BB682B
:100A00001A687B699A4204D2BB681B687A69D31A58
:100A100003E0BB681A687B69D31ABB61BB681B68BB
:100A2000181C6421FFF760FD031C1A1C131C5B00DB
:100A30009A18BB699A4201D2434B79E0FB68181CB3
:100A4000FFF74CFF021C414B9200D358181CFFF7D4
:100A50002BFFFB68DB78DBB20C229343DAB2FB6836
:100A6000DA70FB681B78DBB21F229343DAB23B1CBF
:100A70001E331B881B0A9BB2DBB21343DAB2FB683E
:100A80001A703B1C1E331B88DAB2FB685A70FB6875
:100A90009B7ADBB21F229343DAB23B1C12331B88D2
:100AA000D9B21F230B40DBB21343DAB2FB689A7250
:100AB000FB689B78DAB23B1C1D3313218A431A7002
:100AC000BB681B79002B0BD0BB681A793B1C1D330C
:100AD0001B781343DAB23B1C1D3310210A431A70F2
:100AE000FB683A1C1D3212789A703B1C1D33FA6861
:100AF000D2781A70BB685B79002B07D03B1C1D3382
:100B00003A1C1D32127808210A431A70BB689B797F
:100B1000002B07D03B1C1D333A1C1D3212780421D8
:100B20000A431A70FB683A1C1D321278DA700023EF
:100B3000181CBD4608B080BD10230000382B0000F3
:100B40009422000044230000F5030000182B00004D
:100B500080B582B000AF78607B68002B07D10C486D
:100B60005E23191CFF310B4A0B4B00F0D1FD7B6853
:100B7000E12252021A607B6800221A717B6800220F
:100B80005A717B6800229A71BD4602B080BDC04692
:100B900010230000442B00009422000080B584B094
:100BA00000AF78607B681B79DBB21A1C7B685B79CD
:100BB000DBB21B021343FB60FB68181CBD4604B08C
:100BC00080BDC04680B584B000AFF860B9607A607F
:100BD0000CE0FB681B79DBB2DBB25BB2002BF8DA0E
:100BE000BB685A1CBA601A78FB68DA717B685A1EB7
:100BF0007A60002BEDD1BD4604B080BD80B586B0D3
:100C000000AFF860B9607A60BB68002B33D11F4831
:100C10008F2399001E4A1F4B00F07AFDFB68181CB9
:100C2000FFF7BCFF031C7B617A690823134001D0E6
:100C3000194B26E07A690423134001D0174B20E0BA
:100C40007A690223134001D0154B1AE07A69012317
:100C5000134002D0FD239B0013E0FB681B79DBB23D
:100C60001A1C20231340D9D0BB685A1CBA60FA68FA
:100C7000D279D2B21A707B685A1E7A60002BECD1FE
:100C80000023181CBD4606B080BDC04610230000DE
:100C90005C2B00006C230000F1030000F203000055
:100CA000F303000080B582B000AF786039607B68E4
:100CB000DB78DBB21A1C102313400AD00B4B1B68E5
:100CC0000B4A396889008A587968081C111C9847B2
:100CD00009E0084B1B68064A396889008A58796818
:100CE000081C111C9847BD4602B080BDE0F0FF1FF4
:100CF000D8F0FF1FE4F0FF1F80B500AF084B1B6862
:100D0000002B06D10748F9239900074A074B00F04A
:100D1000FFFC074B181C0021FFF7C4FFBD4680BD38
:100D2000D8F0FF1F74230000DC2A0000B423000069
:100D30000060074080B500AF084B5B68002B06D110
:100D40000748FB239900074A074B00F0E1FC074BDB
:100D5000181C0121FFF7A6FFBD4680BDD8F0FF1F7C
:100D600074230000F42A0000C42300000070074030
:100D700080B584B000AFF860B9607A60BB68002BC2
:100D800012D10D480D490E4A0E4B00F0C1FCFB6814
:100D90005A6880231B041340F9D0BB685A1CBA6000
:100DA0001B781A1CFB68DA607B685A1E7A60002B7D
:100DB000EDD1BD4604B080BD2824000079020000BA
:100DC000B02A00004024000080B586B000AFF86073
:100DD000B9607A60BB68002B52D12E48A2239900DB
:100DE0002D4A2E4B00F094FCFB68181C00F044FACE
:100DF000031C7B617A6980231B03134008D0FA68C7
:100E000080231B03101C191C00F042FA244B3DE008
:100E10007A698023DB02134008D0FA688023DB0262
:100E2000101C191C00F034FA1E4B2FE07A69802345
:100E30009B02134008D0FA6880239B02101C191CE7
:100E400000F026FA184B21E07A6980235B021340F8
:100E500009D0FA6880235B02101C191C00F018FAF4
:100E6000A423DB0012E0FB685A6880239B03134035
:100E7000BAD0BB685A1CBA60FA68D268D2B21A708B
:100E80007B685A1E7A60002BEDD10023181CBD46EA
:100E900006B080BD28240000C82A000040240000BD
:100EA0001D0500001E0500001F05000080B500AFF5
:100EB000044B1A68044B1B680449081C191C904712
:100EC000BD4680BDD4F0FF1FCCF0FF1F00400540A1
:100ED00080B500AF044B1A68044B5B680449081CDA
:100EE000191C9047BD4680BDD4F0FF1FCCF0FF1FFA
:100EF0000050054090B585B000AF78607B681B0C52
:100F0000084A9B18FB60FB68FA6811687A6812044B
:100F1000120C0120041C9440221C0A431A60BD4696
:100F200005B090BD0070044080B584B000AF78601B
:100F30000023FB6009E00E4BFA689200D2587B68F0
:100F40009A4205D0FB680133FB60FB68012BF2D9A4
:100F5000FB68012B06D90749074A084B081C8D215D
:100F600000F0D6FBFB68181CBD4604B080BDC0462F
:100F7000682A0000E8250000782A0000002600000A
:100F800090B58DB000AFF860B9607A60BB68002B97
:100F900006D19749974A984B081CE42100F0B8FB0A
:100FA000BB681B68002B06D19149924A934B081CE1
:100FB000E52100F0ADFBBB681B68BB6100237B62D1
:100FC0003B1C2A3300221A8004233B625DE0BB688D
:100FD0001B683A6A53437868191CFFF785FA031CAB
:100FE0001A1C3B1C28331A803B1C28331B88002BFF
:100FF00003D13B1C283301221A803B1C28331B8859
:101000003A6A53437868191CFFF76EFA031C7B6138
:10101000BB681B687A69D31AFB61BB681C683B1C00
:1010200028331B8801333A6A53437868191CFFF749
:101030005BFA031CE21AFB699A4215D2BB681C6872
:101040003B1C28331B8801333A6A53437868191CC8
:10105000FFF74AFA031CE31AFB613B1C28331A888A
:101060003B1C283301321A80FA69BB699A4209D8BD
:10107000FB69BB613B6A7B623B1C2A333A1C28320A
:1010800012881A803B6A01333B623B6A202B9ED94F
:10109000BB681B68181C6421FFF726FA031C1A1C86
:1010A000131C5B009A18BB699A4201D2544B9BE017
:1010B000FB68181CFFF738FF021C524B9200D358F4
:1010C000181CFFF717FFFB689A684F4B1A40FB6824
:1010D0009A60FB681B68FB627B6A032B07D97B6AFB
:1010E000072B04D8FB6A802292021343FB62FA6A40
:1010F000464B1340FB627B6A013B1A06F8235B05F3
:101100001340FA6A1343FB62FB6A5B0B5B03FB62EF
:101110003B1C2A331B88DB04DA0CFB6A1A43FB688E
:101120001A60FB681A683A4B1A40FB681A60FB6841
:101130009B6813229343FB62BB681B79FA6A1343D3
:10114000FB62BB681B79002B03D0FB6A10221343A0
:10115000FB62FB68FA6A9A60FB681A682D4B1340C1
:10116000FB62BB68DB795A0380239B011A40FB6A50
:101170001A43FB681A60284BFB62FB6A8022120646
:101180001343FB62FB6AC02212021343FB62BB687B
:101190009B79002B05D0FB6A802292051343FB62EA
:1011A00003E0FA6A1A4B1340FB62FB685A68FB6A59
:1011B0001A43FB685A60FB689B68FB62BB681B7A3A
:1011C000002B04D0FB6A802212031343FB62BB682E
:1011D0005B7A002B04D0FB6A8022D2021343FB62AD
:1011E000FB68FA6A9A600023181CBD460DB090BDDA
:1011F000E82500008C2A0000E025000030260000D1
:1012000021050000702A0000FFFFF3FFFFFFFFE051
:10121000FFFFFFDFFFDFFFFF00001F4080B582B050
:1012200000AF78607B68002B06D11048DD235900A1
:101230000F4A104B00F06CFA7B68E12252021A60F0
:101240007B6800221A717B6800225A717B68002239
:101250009A717B680022DA717B6800221A727B68BF
:1012600000225A72BD4602B080BDC046E82500008B
:10127000982A0000E025000080B584B000AF7860B7
:101280007B685B68FB60FB68181CBD4604B080BDD2
:1012900080B584B000AF786039607B685B68BB6004
:1012A000BB685B005B08BB603B68DB0FDB07BA68B1
:1012B0001343BB60BA68144B1340BB603A68134BCE
:1012C0001340BA681343BB60BA68114B1340BB604C
:1012D0003A68C0231B021340BA681343BB607B68A3
:1012E000BA685A607B68181CFFF7C6FF031C3A688F
:1012F000134002D0074BFB6001E00023FB60FB685A
:10130000181CBD4604B080BDFFFFE0BF00001F40B9
:10131000FF3FFFFF1A05000080B500AF044B1B68BC
:10132000044A101C191C00F06DF8BD4680BDC04673
:10133000BCF0FF1F0060064080B500AF044B5B6847
:10134000044A101C191C00F05DF8BD4680BDC04663
:10135000BCF0FF1F0070064080B584B000AFF8609D
:10136000B960FB1D1A70FB1D1B78002B05D1BB68F3
:1013700001229A40FB689A6004E0BB6801229A400F
:10138000FB685A60BD4604B080BDC04680B584B0DD
:1013900000AFF860B9607A607B68002B06D116490F
:1013A000164A174B081C4B2100F0B2F97B681B78DA
:1013B000002B0BD1FB685B69BA680121081C9040C7
:1013C000021CD2431A40FB685A6112E07B685B78CA
:1013D000F968BA68081C111C1A1CFFF7BDFFFB68EE
:1013E0005A69BB680121081C9840031C1A43FB681A
:1013F0005A61BD4604B080BDB4260000582A0000E2
:10140000F426000080B582B000AF786039607B6858
:10141000DB78DBB21A1C1023134006D17B689B7863
:10142000DBB21A1C2023134007D00A4B1B687968D3
:101430003A68081C111C984706E0074B1B6879683E
:101440003A68081C111C9847BFF34F8FBD4602B085
:1014500080BDC046C4F0FF1FC8F0FF1F80B582B03A
:1014600000AFFB1D00221A701DE0FB1D1A78114B06
:101470009200D358002B11D0FB1D1A780E4B92000E
:10148000D358FA1D11780D4A89008958FA1D107831
:10149000084A80008258081C111C9847FB1D1A78C6
:1014A000FB1D01321A70FB1D1B78012BDDD9BD46D7
:1014B00002B080BDA4F0FF1FB4F0FF1FACF0FF1F0F
:1014C00080B500AFFFF7CAFFBD4680BD80B582B0D2
:1014D00000AF78607B68002B06D111488D2359003E
:1014E000104A114B00F014F97B6819687B681B796E
:1014F0001A1C80235B04081C111C1A1C00F01CF928
:101500007B689B68002B07D07B689A687B68DB68E8
:101510007968081C191C9047BD4602B080BDC046C2
:10152000682700002C2A0000BC27000080B500AF0F
:10153000034B1B68181CFFF7C9FFBD4680BDC046A2
:1015400094F0FF1F80B500AF034B5B68181CFFF7DA
:10155000BDFFBD4680BDC04694F0FF1F80B500AF03
:10156000034B9B68181CFFF7B1FFBD4680BDC0460A
:1015700094F0FF1F80B500AF034BDB68181CFFF72A
:10158000A5FFBD4680BDC04694F0FF1F80B582B068
:1015900000AF7860064A7B685968064BD1507B687B
:1015A0001B78181C00F0CCF9BD4602B080BDC046C7
:1015B000007004404410000080B500AF0A4B1B7E51
:1015C000DBB2DBB25BB2002B07DB074B9B79DBB2F4
:1015D0001A1C0C2313409B0801D1044B00E000238C
:1015E000181CBD4680BDC04600400640006CDC02B1
:1015F00080B582B000AF78607B68002B06D1404890
:10160000AC2359003F4A404B00F082F83F4B9B7996
:10161000DBB21A1C0C2313409B08012B1DD17B68E5
:101620001B78012B19D1394B5B78DBB21A1C0123D3
:101630001A407B689B789A420FD0344B334A127819
:10164000D1B23F220A40D2B21A70304B9B79DBB242
:101650001A1C0C2313409B08F7D12C4A7B68DB78BB
:10166000DB18D9B20E230B40DBB21372274B7A681A
:101670005279D201D1B27A68107907220240D2B2EF
:101680000A43D2B21A76214B204A5278D2B20121B3
:101690008A43D1B27A68907801220240D2B20A43DA
:1016A000D2B25A70194B7A6812789201D1B27A6824
:1016B00052780A43D2B21A70144B5B78DBB21A1C10
:1016C000042313400AD07B681B78022B06D10F4BF2
:1016D0009B79DBB21A1C02231340F8D07B681B787D
:1016E0001A1C0A4B9B79DBB2191C0C230B409B087C
:1016F0009A42F3D10023181CBD4602B080BDC046FB
:10170000A8280000142A0000CC2800000040064051
:1017100090B587B002AFF860B9607A603B60054869
:101720003968FA68BB687C68009400F019FA00BE5A
:10173000FDE7C0462C29000080B584B000AFF860FA
:10174000B9607A60BB68032B07D91048DA23191CEB
:10175000FF310F4A0F4BFFF7DBFF7B68002B12D0E6
:10176000F968BA6884235B0012018A18D3181B68D1
:10177000802252041A43F868B96884235B00090187
:101780004118CB181A60BD4604B080BD8C290000FA
:101790003C2A0000A429000080B500AF0A4B9B78CA
:1017A000DBB21A1C0823134007D0074B064A927875
:1017B000D2B208210A43D2B29A70044A88235B014C
:1017C0000021D150BD4680BD00D0074000700440CC
:1017D00080B584B000AFF860B960FB1D1A70FB1DC6
:1017E0001B78002B05D1BB6801229A40FB689A60E8
:1017F00004E0BB6801229A40FB685A60BD4604B011
:1018000080BDC04680B582B000AF786039607B682B
:101810003A685A60BD4602B080BDC04680B582B00D
:1018200000AF786039607B683A689A60BD4602B064
:1018300080BDC04680B582B000AF786003E0C0468E
:101840007B68013B7B607B68002BF8D1BD4602B012
:1018500080BDC04680B500AFFFF700F8FEF79AFFE5
:10186000FEF772FF324A334B101C0D211A1CFFF792
:101870008DFD314A2F4B101C12211A1CFFF786FDDB
:101880002D4A2C4B101C13211A1CFFF77FFD284BEF
:10189000181C0D210122FFF79BFF254B244A52699A
:1018A000802189010A435A61214A80239B01101C2F
:1018B000191CFFF7B3FF214B181CFFF7BBFF1C4A95
:1018C00080239B01101C191CFFF79CFF1B4B181C4D
:1018D000FFF7B0FF184A8023DB02101C191CFFF72A
:1018E0009DFF164B181CFFF7A5FF134A8023DB0250
:1018F000101C191CFFF786FF104B181CFFF79AFFEE
:101900000D4A80231B03101C191CFFF787FF0B4B8C
:10191000181CFFF78FFF084A80231B03101C191C9B
:10192000FFF770FF054B181CFFF784FFBCE7C046AC
:1019300000F00F40102A000040F00F4040420F001E
:1019400080B582B000AF7860074B074A1168074A3C
:1019500011407A689004C022120302400A431A60C0
:10196000BD4602B080BDC04600700440FFFFF3FFDB
:1019700080B582B000AF78600A1CFB1C1A70FB1C9B
:101980001B78002B08D07B68DB78DBB2082213437E
:10199000DAB27B68DA7007E07B68DB78DBB20822BA
:1019A0009343DAB27B68DA70BD4602B080BDC046B0
:1019B00080B582B000AF78600A1CFB1C1A70FB1C5B
:1019C0001B78002B08D07B68DB78DBB20422134342
:1019D000DAB27B68DA7007E07B68DB78DBB204227E
:1019E0009343DAB27B68DA70BD4602B080BDC04670
:1019F00080B582B000AF78600A1CFB1C1A70FB1C1B
:101A00001B78002B07D07B689B68802212031A4347
:101A10007B689A6005E07B689A68034B1A407B6894
:101A20009A60BD4602B080BDFFFFF7FF80B582B06F
:101A300000AF78600A1CFB1C1A70FB1C1B78002B83
:101A400007D07B689B688022D2021A437B689A6029
:101A500005E07B689A68034B1A407B689A60BD4634
:101A600002B080BDFFFFFBFF80B58AB000AFF86019
:101A7000B9603B60FB1D1A70344B1B78002B01D002
:101A800001235FE0314BFA1D12781A70FB1D1B78A1
:101A9000012B02D0022B29D051E0FA682B4B5A605F
:101AA0003B1C1433181CFFF753F83B1C1433BA6863
:101AB0001A60264B59683A1C14323B68081C111CEA
:101AC0001A1CFEF73BFF214B5B68181C0121FFF736
:101AD0004FFF1E4B5B68181C0121FFF769FF1B4B72
:101AE0001B4A9A60194B1B4ADA602AE0FA68174BC6
:101AF0005A603B1C1C33181CFFF790FB3B1C1C332B
:101B0000BA681A60114B59683A1C1C323B68081CB1
:101B1000111C1A1CFFF734FA0C4B5B68181C0121CE
:101B2000FFF766FF094B5B68181C0121FFF77EFF7A
:101B3000064B094A9A60054B084ADA6001E0042323
:101B400000E00023181CBD460AB080BD84F0FF1FD2
:101B5000C50B0000FD0B0000710D0000C90D000059
:101B60000FB480B582B000AF0D4B1B78002B02D1B3
:101B700001235B420DE03B1C14333B6009493A6989
:101B80003B68081C111C1A1C00F0D8F8031C7B6071
:101B90007B68181CBD4602B080BC08BC04B0184766
:101BA00084F0FF1FA91B000090B583B000AF7860E0
:101BB0000A4B1B78002B02D101235B4209E0074B43
:101BC0009C68064B5A683B1D101C191C0122A0473B
:101BD0000123181CBD4603B090BDC04684F0FF1F12
:101BE00080B586B000AFB9607A603B603B1C0F33B4
:101BF000021C1A70BB687B610EE03B1C0F33002295
:101C00009A563B6A101C98473B681B685A1C3B68F5
:101C10001A607B6901337B617A697B689A42ECDBED
:101C2000BD4606B080BDC04680B58CB000AFF86040
:101C3000B9607A603B600023FB61FB68BB61BB69F4
:101C40005A1CBA6100221A707B68002B35D0BB6821
:101C50001B68FB62FB6A002B2BD1BB6930221A7018
:101C6000FB690133FB61FB6964E0F86A3968FEF7E0
:101C700089FC031C7B617B693A685343FA6AD31A77
:101C8000BB62BB6A002B06DABB6A3B623B6A30224E
:101C9000D31ABB6202E0BB6A3033BB627B69FB6272
:101CA000BB695A1CBA61BA6AD2B21A70FB690133B5
:101CB000FB61FB6A002BD8D13BE0BB681B687B62F1
:101CC0007B6A002B32D1BB6930221A70FB69013369
:101CD000FB61FB692EE03B68786A191CFEF704FC87
:101CE000031C3B613B683A6953437A6AD31A3B62EF
:101CF0003B6A092B03D83B6A30333B620BE03B1C49
:101D000038331B78002B01D0412300E061233A6A6D
:101D10009B180A3B3B623B697B62BB695A1CBA61F8
:101D20003A6AD2B21A70FB690133FB617B6A002BFD
:101D3000D1D1FB69181CBD460CB080BD80B59CB0EC
:101D400002AFF860B9607A6000233B660023FB6550
:101D50000023BB613B1C4A3300221A7000233B6105
:101D6000BB687B667EE17B6C252B07D07A6CFB68B9
:101D7000101C9847BB690133BB6170E13B1C4B33BE
:101D800001221A7000237B650023BB651CE07B6E7B
:101D900001337B667B6E1B785BB27B647B6C2F2B85
:101DA0000DDD7B6C392B0ADC7A6D131C9B009B18B4
:101DB0005B001A1C7B6CD318303B7B6504E07B6EA8
:101DC000013B7B660123BB65BB6D002BDFD0062387
:101DD0003B657B6E01337B667B6E1B785BB22E2B83
:101DE00025D100233B650023BB651CE07B6E0133DE
:101DF0007B667B6E1B785BB27B647B6C2F2B0DDD6F
:101E00007B6C392B0ADC3A6D131C9B009B185B0022
:101E10001A1C7B6CD318303B3B6504E07B6E013BA6
:101E20007B660123BB65BB6D002BDFD002E07B6EC0
:101E3000013B7B667B6E01337B667B6E1B785BB2FE
:101E40007B647B6C642B1BD07B6C692B18D07B6C08
:101E5000662B15D07B6C462B12D07B6C782B0FD069
:101E60007B6C582B0CD07B6C6F2B09D07B6C622B5E
:101E700006D07B6C702B03D07B6C752B00D0AAE056
:101E80007B6C642B02D07B6C692B19D17B681A1D8B
:101E90007A601B687B613A1C1C323B1C1433391C72
:101EA0004B3109780091101C191C01220A23FFF7FD
:101EB000BBFE031CFB653A1C1C32FB6DD3183B6652
:101EC0007B6C582B02D07B6C782B20D17B6C782BD1
:101ED00003D13B1C4B3300221A707B681A1D7A60B9
:101EE0001B683B613A1C1C323B1C1033391C4B31C4
:101EF00009780091101C191C00221023FFF794FE92
:101F0000031CFB653A1C1C32FB6DD3183B667B6CD3
:101F10006F2B08D07B6C622B05D07B6C702B02D0B2
:101F20007B6C752B3AD17B681A1D7A601B683B610C
:101F30007B6C6F2B08D002DC622B0AD017E0702B71
:101F40000CD0752B0FD012E03B1C4A3308221A70BC
:101F50000DE03B1C4A3302221A7008E03B1C4A3356
:101F600010221A7003E03B1C4A330A221A703B1CF1
:101F70004A331B78391C1C313A1C1032381C4B3048
:101F800000780090081C111C0022FFF74DFE031C76
:101F9000FB653A1C1C32FB6DD3183B667A6DF96DFC
:101FA0003B1C1833F86800902020FFF719FE3B6EA9
:101FB000002B0BD153E03B6E5A1E3A661B785AB287
:101FC000FB68101C9847BB690133BB613B6E1B78F3
:101FD000002BF0D143E07B6C632B0ED17B681A1D84
:101FE0007A601B68DBB25BB23B643A6CFB68101C26
:101FF0009847BB690133BB6131E07B6C732B27D100
:102000007B681A1D7A601B68FB64FB6C002B26D072
:10201000FB6C181C00F03DF8031CFB657A6DF96D34
:102020003B1C1833F86800902020FFF7D9FD0AE028
:10203000FB6C5A1CFA641B785AB2FB68101C984758
:10204000BB690133BB61FB6C1B78002BF0D106E050
:102050007A6CFB68101C9847BB690133BB617B6ECF
:1020600001337B667B6E1B785BB27B647B6C002BE1
:1020700000D078E6BB69181CBD461AB080BDC046CA
:1020800010B50023934203D0CC5CC4540133F9E76C
:1020900010BD0023C25C0133002AFBD1581E7047DB
:1020A000084B10B5041C002B02D0002100E000BF3B
:1020B000054B1868836A002B00D09847201C00F05D
:1020C00033F8C04600000000742B000070B50E4BC2
:1020D0000E4D0024ED1AAD101E1CAC4204D0A3001E
:1020E000F35898470134F8E700F046FD084B094DD6
:1020F0000024ED1AAD101E1CAC4204D0A300F3580E
:1021000098470134F8E770BD982B0000982B000029
:10211000982B00009C2B0000031C8218934202D0D5
:1021200019700133FAE77047FEE7C0462E2E2F6480
:102130007269766572732F66736C5F756172745F16
:10214000646D612E6300000068616E646C65000060
:1021500068616E646C652D3E7478446D6148616E93
:10216000646C6500786665720000000078666572D0
:102170002D3E646174610000786665722D3E646175
:10218000746153697A65000068616E646C652D3E08
:102190007278446D6148616E646C6500636F756E42
:1021A000740000002E2E2F647269766572732F669C
:1021B000736C5F767265662E63000000696E7374DF
:1021C000616E6365203C2046534C5F464541545543
:1021D00052455F534F435F565245465F434F554EFE
:1021E00054000000636F6E66696720213D204E55E4
:1021F0004C4C0000636F6E666967000001020000CE
:10220000000000000002010000010000008000004A
:10221000000480002E2E2F647269766572732F661B
:10222000736C5F706F72742E680000002E2E2F6426
:102230007269766572732F66736C5F7370695F6421
:102240006D612E630000000068616E646C650000C3
:1022500068616E646C6520262620786665720000D1
:102260002E2E2F647269766572732F66736C5F749D
:10227000706D2E6300000000696E7374616E63659B
:10228000203C2074706D4172726179436F756E7479
:1022900000000000636F6E666967000063686E6C23
:1022A000506172616D73000070776D467265715F89
:1022B000487A00006E756D4F6643686E6C7300005F
:1022C000737263436C6F636B5F487A0063686E6C14
:1022D0004E756D626572203C2046534C5F46454109
:1022E000545552455F54504D5F4348414E4E454C06
:1022F0005F434F554E546E2862617365290000009C
:1023000063686E6C436F756E7420213D202D310023
:102310002E2E2F647269766572732F66736C5F75EB
:102320006172742E63000000696E7374616E636580
:10233000203C20756172744172726179436F756ED1
:1023400074000000636F6E6669672D3E626175649C
:10235000526174655F4270730000000062617564D1
:10236000526174655F4270730000000064617461C3
:10237000000000002E2E2F647269766572732F663E
:10238000736C5F7370692E6300000000636F6E668C
:1023900069670000786665720000000068616E641D
:1023A0006C65000068616E646C6520262620786686
:1023B00065720000735F73706948616E646C655B81
:1023C000305D0000735F73706948616E646C655BBB
:1023D000315D00002E2E2F647269766572732F6650
:1023E000736C5F646D612E68000000006368616E4D
:1023F0006E656C203C2046534C5F46454154555217
:10240000455F444D414D55585F4D4F44554C455FD8
:102410004348414E4E454C0068616E646C65202116
:102420003D204E554C4C00002E2E2F64726976656F
:1024300072732F66736C5F6C70756172742E6300BB
:10244000646174610000000068616E646C65000086
:1024500072696E67427566666572000078666572BD
:1024600000000000786665722D3E646174610000B2
:10247000786665722D3E6461746153697A65000007
:10248000636F756E740000002E2E2F64726976657E
:1024900072732F66736C5F646D612E6800000000BC
:1024A0006368616E6E656C203C2046534C5F464508
:1024B00041545552455F444D414D55585F4D4F4431
:1024C000554C455F4348414E4E454C0068616E6433
:1024D0006C6520213D204E554C4C00002E2E2F6463
:1024E0007269766572732F66736C5F6C707561725A
:1024F000745F646D612E6300706172616D00000035
:1025000068616E646C652D3E7478446D6148616EDF
:10251000646C65002E2E2F647269766572732F6667
:10252000736C5F646D612E68000000006368616E0B
:102530006E656C203C2046534C5F464541545552D5
:10254000455F444D414D55585F4D4F44554C455F97
:102550004348414E4E454C0068616E646C652021D5
:102560003D204E554C4C00002E2E2F64726976652E
:1025700072732F66736C5F6932635F646D612E6383
:102580000000000068616E646C650000786665722A
:1025900000000000646D6148616E646C65000000BD
:1025A0002E2E2F647269766572732F66736C5F6C62
:1025B00070746D722E630000696E7374616E636572
:1025C000203C2046534C5F464541545552455F538D
:1025D0004F435F4C50544D525F434F554E54000093
:1025E000636F6E66696700002E2E2F6472697665D0
:1025F00072732F66736C5F6C70756172742E6300FA
:10260000696E7374616E6365203C2046534C5F466F
:102610004541545552455F534F435F4C50554152CD
:10262000545F434F554E54006461746100000000D4
:10263000636F6E6669672D3E626175645261746591
:102640005F427073000000006261756452617465DE
:102650005F427073000000002E2E2F647269766551
:1026600072732F66736C5F666C6578696F5F7561F6
:1026700072745F646D612E630000000068616E64B7
:102680006C65000068616E646C652D3E7478446D05
:102690006148616E646C650068616E646C652D3EB6
:1026A0007278446D6148616E646C6500636F756E2D
:1026B000740000002E2E2F647269766572732F6687
:1026C000736C5F6770696F2E63000000696E7374CE
:1026D000616E6365203C2046534C5F46454154552E
:1026E00052455F534F435F4750494F5F434F554EED
:1026F00054000000636F6E66696700002E2E2F6421
:102700007269766572732F66736C5F6932632E63CC
:1027100000000000696E7374616E6365203C2046A2
:10272000534C5F464541545552455F534F435F49B3
:1027300032435F434F554E54000000006D61737487
:102740006572436F6E666967202626207372634345
:102750006C6F636B5F487A006D6173746572436F71
:102760006E666967000000002E2E2F647269766520
:1027700072732F66736C5F646D612E6300000000DE
:102780006368616E6E656C203C2046534C5F464525
:1027900041545552455F444D414D55585F4D4F444E
:1027A000554C455F4348414E4E454C00636F6E6645
:1027B000696720213D204E554C4C000068616E64D5
:1027C0006C6520213D204E554C4C000073726341D6
:1027D00064647220213D204E554C4C006465737436
:1027E0004164647220213D204E554C4C0000000095
:1027F000287372635769647468203D3D2031552900
:10280000207C7C20287372635769647468203D3D86
:1028100020325529207C7C202873726357696474A8
:1028200068203D3D20345529000000002864657370
:10283000745769647468203D3D20315529207C7CA3
:102840002028646573745769647468203D3D2032A4
:102850005529207C7C2028646573745769647468EA
:10286000203D3D20345529002E2E2F647269766557
:1028700072732F66736C5F646D616D75782E630083
:10288000696E7374616E6365203C2046534C5F46ED
:102890004541545552455F534F435F444D414D555B
:1028A000585F434F554E54002E2E2F647269766543
:1028B00072732F66736C5F636C6F636B2E630000C3
:1028C000675F7874616C304672657100746172671D
:1028D0006574436F6E666967000000002E2E2F64DA
:1028E0007269766572732F66736C5F636D702E63A9
:1028F00000000000696E7374616E6365203C2046C1
:10290000534C5F464541545552455F534F435F43D7
:102910004D505F434F554E54000000004E554C4CF7
:1029200020213D20636F6E66696700004153534567
:102930005254204552524F52202220257320223AD1
:102940002066696C652022257322204C696E652003
:10295000222564222066756E6374696F6E206E6135
:102960006D652022257322200A0000002E2E2F6480
:102970007269766572732F66736C5F636F702E6316
:1029800000000000636F6E66696700002E2E2F64E2
:102990007269766572732F66736C5F646D612E6801
:1029A000000000006368616E6E656C203C20465339
:1029B0004C5F464541545552455F444D414D555835
:1029C0005F4D4F44554C455F4348414E4E454C008A
:1029D0002E2E2F647269766572732F66736C5F6436
:1029E0006D612E6300000000696E7374616E636533
:1029F000203C2046534C5F464541545552455F5359
:102A00004F435F444D415F434F554E54000000001B
:102A100001010000434C4F434B5F5365744D6367A6
:102A20006C697465436F6E6669670000444D415F71
:102A300048616E646C65495251000000444D415F2D
:102A4000436C6561724368616E6E656C537461744A
:102A50007573466C616773004750494F5F50696EEC
:102A6000496E6974000000000040054000500540B8
:102A700014003810150038104C50554152545F471F
:102A80006574496E7374616E636500004C50554106
:102A900052545F496E6974004C50554152545F471F
:102AA000657444656661756C74436F6E6669670032
:102AB0004C50554152545F5772697465426C6F6354
:102AC0006B696E67000000004C50554152545F52D4
:102AD000656164426C6F636B696E67005350493087
:102AE0005F44726976657249525148616E646C65E3
:102AF00072000000535049315F4472697665724933
:102B0000525148616E646C65720000000000000064
:102B10000000000000C006400000000000000000AF
:102B20000C003410554152545F476574496E7374FC
:102B3000616E636500000000554152545F496E6943
:102B400074000000554152545F47657444656661E6
:102B5000756C74436F6E666967000000554152548E
:102B60005F52656164426C6F636B696E6700000061
:102B70004300000004F0FF1FF8B5C046F8BC08BCD5
:102B80009E467047F8B5C046F8BC08BC9E467047E4
:082B9000E0D8FF7F0100000006
:042B980039040000FC
:042B9C001104000020
:102BA00000127A0000000000000000000000000099
:102BB0000000000000000000000000000000000015
:102BC00000000000702B000000000000000000006A
:102BD00000000000000000000000000000000000F5
:102BE00000000000000000000000000000000000E5
:102BF00000000000000000000000000000000000D5
:082C00000000000000000000CC
:0400000300000649AA
:00000001FF
