:1000000000300020E90400002D050000310500004B
:1000100000000000000000000000000000000000E0
:1000200000000000000000000000000019140000A3
:100030000000000000000000211500007115000004
:100040004105000045050000490500004D05000080
:1000500029050000290500002905000029050000E8
:100060005105000055050000590500005D05000020
:100070006105000065050000690500002905000014
:1000800029050000290500002905000029050000B8
:1000900029050000290500002905000029050000A8
:1000A0002905000029050000290500002905000098
:1000B0002905000029050000290500002905000088
:10040000FFFFFFFFFFFFFFFFFFFFFFFFFE3DFFFFBF
:1004100010B5064C2378002B07D1054B002B02D0DA
:10042000044800E000BF0123237010BD6CF0FF1FE3
:1004300000000000684A000008B5084B002B03D0FC
:100440000748084900E000BF07480368002B03D0B5
:10045000064B002B00D0984708BDC04600000000A6
:10046000684A000070F0FF1F68F0FF1F00000000E6
:10047000164B002B00D1144B9D46402292029A1A33
:10048000924600218B460F461348144A121A03F075
:10049000CCFF0F4B002B00D098470E4B002B00D009
:1004A00098470020002104000D000D48002802D0CC
:1004B0000C4800E000BF03F089FF2000290000F095
:1004C00059FD03F06DFFC046000008000030002019
:1004D00000000000000000006CF0FF1F401C002026
:1004E000000000000000000072B6084808490160E2
:1004F000084880470849094A094B9B1A03DD043B19
:10050000C858D050FBDC62B60648804708ED00E0D2
:1005100000000000250E0000904A000000F0FF1FC0
:100520006CF0FF1F7104000010480047104800479E
:10053000104800471048004710480047104800473F
:10054000104800471048004710480047104800472F
:10055000104800471048004710480047104800471F
:100560001048004710480047104800472905000080
:100570002D050000310500001914000021150000B0
:10058000711500004135000059350000713500003B
:10059000893500001537000035370000593D00004F
:1005A000953D0000BD3C0000E13C00000536000028
:1005B000002934D00123002210B488422CD3012416
:1005C0002407A14204D2814202D209011B01F8E7AB
:1005D000E400A14204D2814202D249005B00F8E764
:1005E000884201D3401A1A434C08A04202D3001B90
:1005F0005C0822438C08A04202D3001B9C082243C3
:10060000CC08A04202D3001BDC082243002803D000
:100610001B0901D00909E3E7101C10BC7047002832
:1006200001D00020C04307B4024802A14018029044
:1006300003BDC046D90000000029F0D003B5FFF784
:10064000B9FF0EBC4243891A1847C046002941D061
:1006500010B4041C4C40A44601230022002900D5FC
:100660004942002800D5404288422CD30124240767
:10067000A14204D2814202D209011B01F8E7E40041
:10068000A14204D2814202D249005B00F8E78842CD
:1006900001D3401A1A434C08A04202D3001B5C0845
:1006A00022438C08A04202D3001B9C082243CC08A2
:1006B000A04202D3001BDC082243002803D01B0900
:1006C00001D00909E3E7101C6446002C00D5404224
:1006D00010BC7047002806D003DB0020C043400850
:1006E00001E08020000607B4024802A140180290F1
:1006F00003BDC046190000000029EBD003B5FFF789
:10070000A7FF0EBC4243891A1847C0467047C0462F
:1007100080B582B000AF78600A1CFB1C1A70FB1C0D
:100720001B78002B08D07B68DB78DBB208221343F0
:10073000DAB27B68DA7007E07B68DB78DBB208222C
:100740009343DAB27B68DA70BD4602B080BDC04622
:1007500080B582B000AF78600A1CFB1C1A70FB1CCD
:100760001B78002B08D07B68DB78DBB204221343B4
:10077000DAB27B68DA7007E07B68DB78DBB20422F0
:100780009343DAB27B68DA70BD4602B080BDC046E2
:1007900080B582B000AF78600A1CFB1C1A70FB1C8D
:1007A0001B78002B07D07B689B68802212031A43BA
:1007B0007B689A6005E07B689A68034B1A407B6807
:1007C0009A60BD4602B080BDFFFFF7FF80B582B0E2
:1007D00000AF78600A1CFB1C1A70FB1C1B78002BF6
:1007E00007D07B689B688022D2021A437B689A609C
:1007F00005E07B689A68034B1A407B689A60BD46A7
:1008000002B080BDFFFFFBFF80B58AB000AFF8608B
:10081000B9603B60FB1D1A70344B1B78002B01D074
:1008200001235FE0314BFA1D12781A70FB1D1B7813
:10083000012B02D0022B29D051E0FA682B4B5A60D1
:100840003B1C2033181C03F017FC3B1C2033BA68F8
:100850001A60264B59683A1C20323B68081C111C50
:100860001A1C03F0FFFA214B5B68181C0121FFF7EB
:100870004FFF1E4B5B68181C0121FFF769FF1B4BE4
:100880001B4A9A60194B1B4ADA602AE0FA68174B38
:100890005A603B1C1433181C03F0F0F83B1C143353
:1008A000BA681A60114B59683A1C14323B68081C2C
:1008B000111C1A1C02F094FF0C4B5B68181C0121E0
:1008C000FFF766FF094B5B68181C0121FFF77EFFED
:1008D000064B094A9A60054B084ADA6001E0042396
:1008E00000E00023181CBD460AB080BD88F0FF1F41
:1008F000ED40000029410000793B0000D53B00009D
:100900000FB480B582B000AF0D4B1B78002B02D125
:1009100001235B420DE03B1C14333B6009493A69FB
:100920003B68081C111C1A1C00F0DAF8031C7B60E1
:100930007B68181CBD4602B080BC08BC04B01847D8
:1009400088F0FF1F4909000090B583B000AF7860C0
:100950000A4B1B78002B02D101235B4209E0074BB5
:100960009C68064B5A683B1D101C191C0122A047AD
:100970000123181CBD4603B090BDC04688F0FF1F80
:1009800080B586B000AFB9607A603B603B1C0F3326
:10099000021C1A70BB687B610EE03B1C0F33002207
:1009A0009A563B6A101C98473B681B685A1C3B6868
:1009B0001A607B6901337B617A697B689A42ECDB60
:1009C000BD4606B080BDC04680B58CB000AFF860B3
:1009D000B9607A603B600023FB61FB68BB61BB6967
:1009E0005A1CBA6100221A707B68002B36D0BB6893
:1009F0001B68FB62FB6A002B07D1BB6930221A70AF
:100A0000FB690133FB61FB6966E023E0F86A396842
:100A1000FFF71CFE031C7B617B693A685343FA6A4B
:100A2000D31ABB62BB6A002B06DABB6A3B623B6A25
:100A30003022D31ABB6202E0BB6A3033BB627B69EF
:100A4000FB62BB695A1CBA61BA6AD2B21A70FB69FE
:100A50000133FB61FB6A002BD8D13CE0BB681B680B
:100A60007B627B6A002B07D1BB6930221A70FB695D
:100A70000133FB61FB692FE02AE03B68786A191CAF
:100A8000FFF796FD031C3B613B683A6953437A6A62
:100A9000D31A3B623B6A092B03D83B6A30333B6273
:100AA0000BE03B1C38331B78002B01D0412300E0C6
:100AB00061233A6A9B180A3B3B623B697B62BB69D4
:100AC0005A1CBA613A6AD2B21A70FB690133FB61EF
:100AD0007B6A002BD1D1FB69181CBD460CB080BDD0
:100AE00080B59CB002AFF860B9607A6000233B66C5
:100AF0000023FB650023BB613B1C4A3300221A70B4
:100B000000233B61BB687B667FE17B6C252B07D0B4
:100B10007A6CFB68101C9847BB690133BB6171E1BB
:100B20003B1C4B3301221A7000237B650023BB65FD
:100B30001CE07B6E01337B667B6E1B785BB27B6453
:100B40007B6C2F2B0DDD7B6C392B0ADC7A6D131C33
:100B50009B009B185B001A1C7B6CD318303B7B6599
:100B600004E07B6E013B7B660123BB65BB6D002B04
:100B7000DFD006233B657B6E01337B667B6E1B7883
:100B80005BB22E2B25D100233B650023BB651CE007
:100B90007B6E01337B667B6E1B785BB27B647B6C08
:100BA0002F2B0DDD7B6C392B0ADC3A6D131C9B005F
:100BB0009B185B001A1C7B6CD318303B3B6504E030
:100BC0007B6E013B7B660123BB65BB6D002BDFD0D9
:100BD00002E07B6E013B7B667B6E01337B667B6E46
:100BE0001B785BB27B647B6C642B1BD07B6C692BAA
:100BF00018D07B6C662B15D07B6C462B12D07B6C8F
:100C0000782B0FD07B6C582B0CD07B6C6F2B09D0C2
:100C10007B6C622B06D07B6C702B03D07B6C752BAE
:100C200000D0ABE07B6C642B02D07B6C692B19D1BC
:100C30007B681A1D7A601B687B613A1C1C323B1C66
:100C40001433391C4B3109780091101C191C0122F6
:100C50000A23FFF7B9FE031CFB653A1C1C32FB6D2F
:100C6000D3183B667B6C582B02D07B6C782B20D141
:100C70007B6C782B03D13B1C4B3300221A707B68B2
:100C80001A1D7A601B683B613A1C1C323B1C1033F6
:100C9000391C4B3109780091101C191C00221023BB
:100CA000FFF792FE031CFB653A1C1C32FB6DD31848
:100CB0003B667B6C6F2B08D07B6C622B05D07B6C0A
:100CC000702B02D07B6C752B3BD17B681A1D7A6030
:100CD0001B683B617B6C6F2B08D002DC622B0AD057
:100CE00018E0702B0CD0752B0FD013E03B1C4A334F
:100CF00008221A700EE03B1C4A3302221A7009E0E7
:100D00003B1C4A3310221A7004E03B1C4A330A226F
:100D10001A70C0463B1C4A331B78391C1C313A1CE4
:100D20001032381C4B3000780090081C111C002237
:100D3000FFF74AFE031CFB653A1C1C32FB6DD318FF
:100D40003B667A6DF96D3B1C1833F86800902020E3
:100D5000FFF716FE3B6E002B0FD00AE03B6E5A1ECB
:100D60003A661B785AB2FB68101C9847BB6901337E
:100D7000BB613B6E1B78002BF0D143E07B6C632B97
:100D80000ED17B681A1D7A601B68DBB25BB23B64D4
:100D90003A6CFB68101C9847BB690133BB6131E0BA
:100DA0007B6C732B27D17B681A1D7A601B68FB64F0
:100DB000FB6C002B26D0FB6C181C03F03EFB031CC5
:100DC000FB657A6DF96D3B1C1833F86800902020A4
:100DD000FFF7D6FD0AE0FB6C5A1CFA641B785AB286
:100DE000FB68101C9847BB690133BB61FB6C1B7827
:100DF000002BF0D106E07A6CFB68101C9847BB69A9
:100E00000133BB617B6E01337B667B6E1B785BB20B
:100E10007B647B6C002B00D077E6BB69181CBD4659
:100E20001AB080BD80B500AF0A4B9B78DBB21A1CAC
:100E30000823134007D0074B064A9278D2B2082104
:100E40000A43D2B29A70044A88235B010021D15030
:100E5000BD4680BD00D007400070044080B582B020
:100E600000AF786039607B683A68DA60BD4602B0EE
:100E700080BDC04680B584B000AF78600023FB60C1
:100E8000FB685A1CFA60054A101C191CFFF738FD54
:100E9000FA239B00181C01F0D1F9F1E74C44000043
:100EA00080B584B000AF78603B1C0C3301221A700F
:100EB0003B1C0C3300225A700E4A3B1C0C33101C96
:100EC0000D211A1C02F0BEFB0B4A3B1C0C33101CFC
:100ED00012211A1C02F0B6FB074A3B1C0C33101CF3
:100EE00013211A1C02F0AEFB002001F0CBF9BD4625
:100EF00004B080BD00F00F4040F00F4080B582B0DC
:100F000000AF7860064A80239B01101C191CFFF774
:100F1000A5FF96235B00181C01F090F9F2E7C0468C
:100F200000F00F4080B582B000AF7860064A8023A1
:100F3000DB02101C191CFFF791FF96239B00181C65
:100F400001F07CF9F2E7C04640F00F4080B582B076
:100F500000AF7860064A80231B03101C191CFFF7A2
:100F60007DFFE1239B00181C01F068F9F2E7C04601
:100F700040F00F4080B582B002AF03F0D1F903F02A
:100F80006BF903F043F9204A204B04210091002122
:100F90000191101C191C5A22002301F011F81C4A5F
:100FA0001C4B0421009100210191101C191C5A2294
:100FB000002301F005F8184A184B04210091002184
:100FC0000191101C191C5A22002300F0F9FF144A49
:100FD000144B0421009100210191101C191C5A226C
:100FE000002300F0EDFF104A104B04210091002176
:100FF0000191101C191C5A22002300F0E1FF01F09E
:101000009BF9C046FDE7C046750E00006044000035
:10101000A10E00006C440000FD0E000078440000AA
:10102000250F0000844400004D0F00009044000094
:1010300080B586B000AF78600023FB6001F0BAF99C
:10104000494B1B68002B01D100F0DEF8474B1B68B1
:101050007A68134000D079E07B68002B12D0082317
:101060007A68D3187B607A68072313400AD07B68BC
:101070000722934308337B607A680723134001D02B
:1010800072B6FEE77B68002B60D0394B1B687A682C
:101090009A425BD8374B3B61364B1B687B6104E05F
:1010A0007B693B617B691B687B617B695A687B68F4
:1010B0009A4203D27B691B68002BF1D12A4B1B6833
:1010C0007A699A4242D03B691A680823D318FB60B8
:1010D0007B691A683B691A607B695A687B68D21A17
:1010E00008235B009A4216D97A697B68D318BB60E3
:1010F000BA680723134001D072B6FEE77B695A68CD
:101100007B68D21ABB685A607B697A685A60BB6890
:10111000181C00F0D7F8164B1A687B695B68D21A66
:10112000134B1A60124B1A68134B1B689A4203D276
:101130000F4B1A68104B1A607B695A680B4B1B687F
:101140001A437B695A607B6900221A6001F03EF9FC
:10115000FA680723134001D072B6FEE7FB68181C3B
:10116000BD4606B080BDC046A0180020AC180020C7
:10117000A418002098180020A818002080B584B07A
:1011800000AF78607B68FB607B68002B35D008235C
:101190005B42FA68D318FB60FB68BB60BB685A68A7
:1011A000174B1B68134001D172B6FEE7BB681B6882
:1011B000002B01D072B6FEE7BB685A68104B1B6863
:1011C00013401AD0BB681B68002B16D1BB685A6845
:1011D0000B4B1B68DB431A40BB685A6001F0EAF80E
:1011E000BB685A68074B1B68D218064B1A60BB686D
:1011F000181C00F067F801F0E9F8BD4604B080BDA6
:10120000AC180020A418002080B584B000AFA02343
:101210009B01BB60254BFB60FA68072313400CD091
:10122000FB680733FB60FB6807229343FB60BA68E7
:10123000FB68D21A1D4BD318BB60FB687B601C4B4C
:101240007A681A601A4B00225A607A68BB68D31811
:10125000FB600823FA68D31AFB60FB6807229343FC
:10126000FB60FA68134B1A60124B1B6800225A602D
:10127000104B1B6800221A607B683B603B68FA6871
:10128000D21A3B685A600B4B1A683B681A603B687D
:101290005A68094B1A603B685A68084B1A60084B39
:1012A000802212061A60BD4604B080BD98F0FF1F70
:1012B00098180020A0180020A8180020A4180020CA
:1012C000AC18002080B584B000AF7860264BFB607E
:1012D00002E0FB681B68FB60FB681A687B689A4247
:1012E000F7D3FB68BB60FB685B68BA68D2187B68A1
:1012F0009A4208D1FB685A687B685B68D218FB6821
:101300005A60FB687B607B68BB607B685B68BA681F
:10131000D218FB681B689A4218D1FB681A68134BF5
:101320001B689A420DD07B685A68FB681B685B6833
:10133000D2187B685A60FB681B681A687B681A6061
:1013400008E00A4B1A687B681A6003E0FB681A68B9
:101350007B681A60FA687B689A4202D0FB687A68F8
:101360001A60BD4604B080BD98180020A018002067
:1013700098B500AF094C0A4B1B68181CFA2399005A
:10138000FFF716F9031C013B2360064B00221A608D
:10139000054B07221A60BD4698BDC04614E000E028
:1013A00000F0FF1F18E000E010E000E080B584B01E
:1013B00000AFF860B9607A60FB68043BFB60FB68D3
:1013C000802252041A60FB68043BFB60BA68FB6829
:1013D0001A60FB68043BFB60084AFB681A60FB6804
:1013E000143BFB607A68FB681A60FB68203BFB607B
:1013F000FB68181CBD4604B080BDC0460114000047
:1014000080B500AF034B1B68013301D072B6FEE715
:1014100072B6FEE704F0FF1F80B500AFBD4680BD89
:101420000B4A13681868203080F30988022080F383
:101430001488BFF36F8F3FBCAE4608BC04BC62B6D5
:101440001847C046C046C046C046C046C046C04613
:10145000B0180020C046C046C046C046C046C04680
:1014600080B500AF0D4B0D4A1268FF2109040A43F5
:101470001A600A4B094A1268FF2109060A431A60DA
:10148000FFF776FF064B00221A60FFF7C9FFFFF750
:10149000B7FF0023181CBD4680BDC04620ED00E00C
:1014A00004F0FF1F80B500AF044B802252051A6084
:1014B000BFF34F8FBFF36F8FBD4680BD04ED00E0DB
:1014C00080B500AF72B6054B1B685A1C034B1A60FF
:1014D000BFF34F8FBFF36F8FBD4680BD04F0FF1F7A
:1014E00080B500AF084B1B68002B01D172B6FEE738
:1014F000054B1B685A1E044B1A60034B1B68002BDC
:1015000000D162B6BD4680BD04F0FF1FEFF310802E
:1015100072B670470023181C80F310887047C046CD
:10152000EFF309800E4B1A6820381060F0C0444673
:101530004D4656465F46F0C008B572B601F088F8D1
:1015400062B60CBC116808681030F0C8A046A94605
:10155000B246BB4680F309882038F0C81847C04619
:10156000B0180020C046C046C046C046C046C0466F
:1015700080B582B000AFFFF7C9FF031C7B6000F0AD
:10158000BFFF031C002B03D0054B802252051A60BD
:101590007B68181CFFF7C0FFBD4602B080BDC04687
:1015A00004ED00E080B582B000AF78607B681A1C63
:1015B00008327B685A607B68012252429A607B68DD
:1015C0001A1C08327B68DA607B681A1C08327B6858
:1015D0001A617B6800221A60BD4602B080BDC04619
:1015E00080B582B000AF78607B6800221A61BD468A
:1015F00002B080BD80B584B000AF786039607B6890
:101600005B68FB603B68FA685A60FB689A683B68F5
:101610009A60FB689B683A685A60FB683A689A600F
:101620003B687A681A617B681B685A1C7B681A6081
:10163000BD4604B080BDC04680B584B000AF7860C0
:1016400039603B681B68BB60BB68013303D17B68B2
:101650001B69FB600CE07B680833FB6002E0FB6801
:101660005B68FB60FB685B681A68BB689A42F6D9E6
:10167000FB685A683B685A603B685B683A689A60E6
:101680003B68FA689A60FB683A685A603B687A6817
:101690001A617B681B685A1C7B681A60BD4604B0DF
:1016A00080BDC04680B584B000AF78607B681B69A0
:1016B000FB607B685B687A6892689A607B689B686D
:1016C0007A6852685A60FB685A687B689A4203D10C
:1016D0007B689A68FB685A607B6800221A61FB6825
:1016E0001B685A1EFB681A60FB681B68181CBD4605
:1016F00004B080BD80B584B000AF786039607B688D
:10170000FB60FB68002B01D172B6FEE7FFF7D8FE45
:10171000FB681A68FB68D96BFB681B6C4B43D218DB
:10172000FB685A60FB6800229A63FB681A68FB68D2
:101730009A60FB681A68FB68DB6B591EFB681B6CC0
:101740004B43D218FB68DA60FA684423FF21D15476
:10175000FA684523FF21D1543B68002B0ED1FB686A
:101760001B69002B14D0FB681033181C01F000F823
:10177000031C002B0CD0FFF795FE09E0FB6810332B
:10178000181CFFF70FFFFB682433181CFFF70AFF34
:10179000FFF7A6FE0123181CBD4604B080BDC0465D
:1017A00090B58BB002AFF860B960FB1D1A70FB6892
:1017B000002B01D172B6FEE7BB68002B02D10023DB
:1017C000FB6103E0FB68BA685343FB61FB6950337C
:1017D000181CFFF72DFC031CBB61BB69002B0BD051
:1017E000BB6950337B61F868B9687A69FB1D1B7867
:1017F000BC69009400F006F8BB69181CBD4609B02E
:1018000090BDC04680B584B000AFF860B9607A6022
:101810001A1CFB1C1A70BB68002B03D1BB69BA6988
:101820001A6002E0BB697A681A60BB69FA68DA6319
:10183000BB69BA681A64BB69181C0121FFF75AFF1B
:10184000BA69F91C4C230978D154BD4604B080BD57
:1018500080B58AB000AFF860B9607A603B60002361
:101860007B62FB683B623B6A002B01D172B6FEE7EC
:10187000BB68002B03D13B6A1B6C002B01D10123F9
:1018800000E00023002B01D172B6FEE73B68022B7B
:1018900003D13B6ADB6B012B01D1012300E0002364
:1018A000002B01D172B6FEE701F0EEF8031C002B0D
:1018B00002D17B68002B01D1012300E00023002B23
:1018C00001D172B6FEE7FFF7FBFD3B6A9A6B3B6AFC
:1018D000DB6B9A4202D33B68022B21D1396ABA688A
:1018E0003B68081C111C1A1C00F0E6F9031CFB6184
:1018F0003B6A5B6A002B0AD03B6A2433181C00F059
:1019000037FF031C002B07D0FFF7CCFD04E0FB6979
:10191000002B01D0FFF7C6FDFFF7E2FD012363E0D6
:101920007B68002B03D1FFF7DBFD00235CE07B6AC3
:10193000002B06D13B1C1433181C00F075FF01234B
:101940007B62FFF7CDFD00F035FDFFF7B9FD3A6A88
:101950004423D35CDBB25BB2013303D13A6A442344
:101960000021D1543A6A4523D35CDBB25BB2013328
:1019700003D13A6A45230021D154FFF7B1FD3A1C47
:1019800014323B1D101C191C00F066FF031C002BB9
:1019900021D13B6A181C00F09DFA031C002B13D0C8
:1019A0003B6A1A1C10327B68101C191C00F0A0FE48
:1019B0003B6A181C00F018FA00F008FD031C002B0D
:1019C00011D1FFF76FFD0EE03B6A181C00F00CFA16
:1019D00000F0FCFC77E73B6A181C00F005FA00F009
:1019E000F5FC002300E06EE7181CBD460AB080BD80
:1019F00080B588B000AFF860B9607A603B60FB6882
:101A0000BB61BB69002B01D172B6FEE7BB68002B3E
:101A100003D1BB691B6C002B01D1012300E0002323
:101A2000002B01D172B6FEE73B68022B03D1BB69E4
:101A3000DB6B012B01D1012300E00023002B01D13E
:101A400072B6FEE7FFF762FD031C7B61BB699A6B10
:101A5000BB69DB6B9A4202D33B68022B32D13B1C41
:101A60001333B96945228A5C1A70B969BA683B6850
:101A7000081C111C1A1C00F01FF93B1C13331B78A7
:101A80005BB2013312D1BB695B6A002B17D0BB6913
:101A90002433181C00F06CFE031C002B0FD07B6855
:101AA000002B0CD07B6801221A6008E03B1C13332A
:101AB0001B780133DBB2D9B2BA694523D154012373
:101AC000FB6101E00023FB617B69181CFFF724FD2B
:101AD000FB69181CBD4608B080BDC04680B58AB001
:101AE00000AFF860B9607A603B6000237B62FB68FE
:101AF0003B623B6A002B01D172B6FEE7BB68002B4C
:101B000003D13B6A1B6C002B01D1012300E00023B1
:101B1000002B01D172B6FEE700F0B6FF031C002BCC
:101B200002D17B68002B01D1012300E00023002BB0
:101B300001D172B6FEE7FFF7C3FC3B6A9B6BFB610A
:101B4000FB69002B3CD03B6ADB68BB613A6ABB682F
:101B5000101C191C00F020F93B68002B1BD1FB69FD
:101B60005A1E3B6A9A633B6A1B68002B04D101F042
:101B700061F8021C3B6A5A603B6A1B69002B1BD050
:101B80003B6A1033181C00F0F3FD031C002B13D02C
:101B9000FFF788FC10E03B6ABA69DA603B6A5B6A6F
:101BA000002B09D03B6A2433181C00F0E1FD031C14
:101BB000002B01D0FFF776FCFFF792FC012377E0C2
:101BC0007B68002B03D1FFF78BFC002370E07B6A5E
:101BD000002B06D13B1C1033181C00F025FE0123FE
:101BE0007B62FFF77DFC00F0E5FBFFF769FC3A6ADA
:101BF0004423D35CDBB25BB2013303D13A6A4423A2
:101C00000021D1543A6A4523D35CDBB25BB2013385
:101C100003D13A6A45230021D154FFF761FC3A1CF5
:101C200010323B1D101C191C00F016FE031C002B6B
:101C30002ED13B6A181C00F037F9031C002B20D072
:101C40003B6A1B68002B08D1FFF73AFC3B6A5B68D4
:101C5000181C00F035FFFFF743FC3B6A1A1C2432C6
:101C60007B68101C191C00F043FD3B6A181C00F037
:101C7000BBF800F0ABFB031C002B18D1FFF712FCE4
:101C800015E03B6A181C00F0AFF800F09FFB52E72C
:101C90003B6A181C00F0A8F800F098FB3B6A181C7F
:101CA00000F002F9031C002B01D0002300E042E702
:101CB000181CBD460AB080BD80B586B000AFF86084
:101CC000B9607A6000237B61FB689B6B3B61FB68BA
:101CD0001B6C002B0ED1FB681B68002B52D1FB68DC
:101CE0005B68181C00F04AFF031C7B61FB68002244
:101CF0005A6047E07B68002B1BD1FB689968FB6842
:101D00001B6CBA68081C111C1A1C02F085FBFB68CE
:101D10009A68FB681B6CD218FB689A60FB689A682B
:101D2000FB685B689A422DD3FB681A68FB689A606F
:101D300028E0FB68D968FB681B6CBA68081C111C9A
:101D40001A1C02F069FBFB68DA68FB681B6C5B42DB
:101D5000D218FB68DA60FB68DA68FB681B689A4295
:101D600007D2FB685A68FB681B6C5B42D218FB68A1
:101D7000DA607B68022B05D13B69002B02D03B69FE
:101D8000013B3B613B695A1CFB689A637B69181CE9
:101D9000BD4606B080BDC04680B582B000AF786059
:101DA00039607B681B6C002B1AD07B68DA687B6813
:101DB0001B6CD2187B68DA607B68DA687B685B68CA
:101DC0009A4203D37B681A687B68DA607B68DA68BA
:101DD0007B681B6C3968081C111C1A1C02F01CFB68
:101DE000BD4602B080BDC04680B584B000AF78600B
:101DF000FFF766FB3B1C0F33796845228A5C1A703B
:101E000016E07B685B6A002B0AD07B682433181CC1
:101E100000F0AEFC031C002B03D000F06BFD00E0D3
:101E20000CE03B1C0F333A1C0F321278013A1A7047
:101E30003B1C0F331B785BB2002BE2DC7A68452336
:101E4000FF21D154FFF74CFBFFF73AFB3B1C0E334D
:101E5000796844228A5C1A7016E07B681B69002B43
:101E600011D07B681033181C00F082FC031C002B7F
:101E700001D000F03FFD3B1C0E333A1C0E321278AD
:101E8000013A1A7000E005E03B1C0E331B785BB290
:101E9000002BE2DC7A684423FF21D154FFF720FBBA
:101EA000BD4604B080BDC04680B584B000AF786048
:101EB000FFF706FB7B689B6B002B02D10123FB60C5
:101EC00001E00023FB60FFF70BFBFB68181CBD461D
:101ED00004B080BD80B584B000AF7860FFF7F0FA41
:101EE0007B689A6B7B68DB6B9A4202D10123FB60B3
:101EF00001E00023FB60FFF7F3FAFB68181CBD4606
:101F000004B080BD80B584B000AF78603960002334
:101F1000FB6014E00D4BFA68D200D358002B0BD1B4
:101F20000A4BFA68D2003968D150084AFB68DB00D6
:101F3000D3187A685A6005E0FB680133FB60FB68E0
:101F4000072BE7D9BD4604B080BDC046001C002069
:101F500080B586B000AFF860B9607A60FB687B61DD
:101F6000FFF7AEFA7A694423D35CDBB25BB201338C
:101F700003D17A6944230021D1547A694523D35C83
:101F8000DBB25BB2013303D17A6945230021D1541E
:101F9000FFF7A6FA7B699B6B002B09D17B69191CA3
:101FA0002431BA687B68081C111C1A1C00F0BCFBA9
:101FB0007B69181CFFF718FFBD4606B080BDC04600
:101FC00090B58DB004AFF860B9603B60BB1D1A805E
:101FD000BB1D1B889B00181CFFF72AF8031C7B61A4
:101FE0007B69002B10D06C20FFF722F8031CFB61EB
:101FF000FB69002B03D0FB697A691A6306E07B69F1
:10200000181CFFF7BBF801E00023FB61FB69002B04
:1020100015D0BB1D1A88F868B9683B683C6B009402
:102020007C6B0194FC6902940024039400F010F886
:10203000FB69181C00F09CF80123BB6102E001233E
:102040005B42BB61BB69181CBD4609B090BDC04670
:1020500080B586B000AFF860B9607A603B60BB6A5B
:102060001A6B7B689B00101CA5211A1C02F0DDF97D
:10207000BB6A1A6B7B683D495B189B00D3183B61B8
:102080003B69072293433B613A690723134001D020
:1020900072B6FEE700237B6113E0BA687B69D31850
:1020A0001A78B86A302379694118CB181A71BA685E
:1020B0007B69D3181B78002B00D105E07B690133C5
:1020C0007B617B69092BE8D9BA6A3D230021D15491
:1020D0003B6A042B01D904233B62BB6A3A6ADA6289
:1020E000BB6A3A6A9A64BB6A0022DA64BB6A043348
:1020F000181CFFF775FABB6A1833181CFFF770FA43
:10210000BB6ABA6A1A613B6A0522D21ABB6A9A6133
:10211000BB6ABA6A5A6200237B6108E0BB6A7A69CB
:10212000143292000021D1507B6901337B617B69BD
:10213000042BF3D9BB6A00225A66BA6A68230021CD
:10214000D1543969FA683B68081C111C1A1CFFF746
:102150002DF9021CBB6A1A607B6A002B02D07B6AD5
:10216000BA6A1A60BD4606B080BDC046FFFFFF3F99
:1021700080B582B000AF7860FFF7A2F9294B1B68E9
:102180005A1C284B1A60284B1B68002B09D1264B80
:102190007A681A60234B1B68012B10D100F0C4FB36
:1021A0000DE0224B1B68002B09D11F4B1B68DA6A1C
:1021B0007B68DB6A9A4202D81B4B7A681A601C4B18
:1021C0001B685A1C1A4B1A60194B1A687B681A64F0
:1021D0007B68DA6A174B1B689A4203D97B68DA6A14
:1021E000144B1A607B68DA6A131C9B009B189B00D7
:1021F000114A9A187B680433101C191CFFF7FAF96E
:10220000FFF76EF9094B1B68002B08D0064B1B68C3
:10221000DA6A7B68DB6A9A4201D2FFF743F9BD466E
:1022200002B080BD88190020B01800209419002049
:10223000A419002090190020B418002080B584B0A3
:1022400000AF78600023FB607B68002B10D00C4B44
:102250001B68002B01D072B6FEE700F0ABF87B687C
:10226000181C002100F0F8FC00F0B0F8031CFB6023
:10227000FB68002B01D1FFF715F9BD4604B080BD06
:10228000B019002080B584B000AF7860FFF718F96E
:102290007B68002B02D1234B1B6800E07B68FB604E
:1022A000FB680433181CFFF7FDF9FB689B6A002BE1
:1022B00004D0FB681833181CFFF7F4F9FB680433EB
:1022C000194A101C191CFFF795F9FFF709F9174B6C
:1022D0001B68002B05D0FFF7F3F800F0B3FBFFF706
:1022E000FFF8104B1B68FA689A4218D10F4B1B6815
:1022F000002B08D00E4B1B68002B01D072B6FEE7F6
:10230000FFF7D0F80BE0084B1A680A4B1B689A429B
:1023100003D1044B00221A6001E000F099F9BD4698
:1023200004B080BDB018002074190020941900205A
:10233000B01900208819002080B584B002AF174A78
:10234000174B0021009117490191101C191C5A22AA
:102350000023FFF735FE031C7B607B68012B03D154
:1023600000F0CEFC031C7B607B68012B0DD172B6A4
:102370000D4B012252421A600C4B01221A600C4B89
:1023800000221A60FFF76CF804E07B68013301D18A
:1023900072B6FEE7BD4602B080BDC0460929000006
:1023A0009C440000AC190020A819002094190020BA
:1023B0008C19002080B500AF034B1B685A1C024BE0
:1023C0001A60BD4680BDC046B019002080B584B0FB
:1023D00000AF0023FB600023BB603A4B1B68002B5F
:1023E00001D172B6FEE7FFF76BF8364B1B685A1E39
:1023F000344B1A60334B1B68002B5CD1324B1B688B
:10240000002B58D02FE0314BDB68DB68FB60FB68AA
:102410001833181CFFF746F9FB680433181CFFF744
:1024200041F9FB68DA6A2A4B1B689A4203D9FB68B8
:10243000DA6A274B1A60FB68DA6A131C9B009B1848
:102440009B00244A9A18FB680433101C191CFFF7E0
:10245000D1F8FB68DA6A204B1B68DB6A9A4202D328
:102460001E4B01221A60194B1B68002BCBD1FB6855
:10247000002B01D000F0E6FA194B1B687B607B68EB
:10248000002B10D000F03CF8031C002B02D0134BA3
:1024900001221A607B68013B7B607B68002BF1D1D5
:1024A0000F4B00221A600D4B1B68002B03D0012339
:1024B000BB60FEF7F7FFFFF713F8BB68181CBD46BB
:1024C00004B080BDB01900208819002048190020F0
:1024D00090190020B4180020B01800209C1900208A
:1024E0009819002080B582B000AF044B1B687B6058
:1024F0007B68181CBD4602B080BDC0468C19002008
:1025000080B586B000AF00237B61464B1B68002B73
:1025100000D076E0444B1B6801333B61424B3A6983
:102520001A603B69002B17D1404B1B681B68002BBE
:1025300001D072B6FEE73D4B1B68FB603C4B1A684E
:102540003A4B1A603A4BFA681A603A4B1B685A1CAD
:10255000384B1A6000F076FA374B1B683A699A429A
:102560004ED3324B1B681B68002B01D1012300E0C6
:102570000023002B04D0304B012252421A603FE06E
:102580002A4B1B68DB68DB68BB60BB685B687B60F1
:102590003A697B689A4203D2274B7A681A602FE027
:1025A000BB680433181CFFF77DF8BB689B6A002BDF
:1025B00004D0BB681833181CFFF774F8BB68DA6ADC
:1025C0001E4B1B689A4203D9BB68DA6A1B4B1A6020
:1025D000BB68DA6A131C9B009B189B00184A9A1868
:1025E000BB680433101C191CFFF704F8BB68DA6AD7
:1025F000144B1B68DB6A9A4201D301237B61B0E76D
:1026000004E0114B1B685A1C0F4B1A600F4B1B68E0
:10261000002B01D001237B617B69181CBD4606B0ED
:1026200080BDC046B01900208C1900204019002040
:1026300044190020A0190020A8190020901900209A
:10264000B4180020B0180020981900209C19002010
:1026500080B582B000AF214B1B68002B03D0204B0C
:1026600001221A6037E01E4B00221A601D4B1B68C6
:102670007B6007E07B68002B01D172B6FEE77B68C8
:10268000013B7B6018497A68131C9B009B189B00D8
:102690005B58002BEED07A68131C9B009B189B00A4
:1026A000114A9B183B603B685B685A683B685A60FC
:1026B0003B685A683B6808339A4204D13B685B68C0
:1026C0005A683B685A603B685B68DA68074B1A6077
:1026D000044B7A681A60BD4602B080BDB019002074
:1026E0009C19002090190020B4180020B018002078
:1026F00080B582B000AF786039607B68002B01D173
:1027000072B6FEE7074B1B6818337A68101C191C59
:10271000FEF792FF3B68181C012100F09DFABD46B0
:1027200002B080BDB018002080B584B000AFF86062
:10273000B9607A60FB68002B01D172B6FEE70B4BE3
:102740001B681833FA68101C191CFEF753FF7B68CE
:10275000002B02D001235B42BB60BA687B68101C6F
:10276000191C00F079FABD4604B080BDB0180020F5
:1027700080B584B000AF78607B68DB68DB68BB60E5
:10278000BB68002B01D172B6FEE7BB681833181C7A
:10279000FEF788FF1E4B1B68002B1DD1BB6804335E
:1027A000181CFEF77FFFBB68DA6A1A4B1B689A4257
:1027B00003D9BB68DA6A174B1A60BB68DA6A131C64
:1027C0009B009B189B00144A9A18BB680433101C8A
:1027D000191CFEF70FFF06E0BB6818330F4A101CE8
:1027E000191CFEF707FFBB68DA6A0D4B1B68DB6A32
:1027F0009A4205D90123FB600A4B01221A6001E0CD
:102800000023FB60FB68181CBD4604B080BDC046B9
:10281000B019002090190020B41800204819002099
:10282000B01800209C19002080B582B000AF7860FD
:102830007B68002B01D172B6FEE7054B1A687B68F6
:102840001A60044B1A687B685A60BD4602B080BDAE
:10285000A01900208C19002080B584B000AF7860EA
:1028600039607B68002B01D172B6FEE73B68002B14
:1028700001D172B6FEE7FEF723FE1C4B1B68BB605E
:102880003B681B68013302D10023FB6027E07B68B3
:102890001A68174B1B689A4207D07B685A68BB6856
:1028A0009A4202D80123FB6019E07B685B68BA6832
:1028B000D21A3B681B689A420FD23B681A687B6841
:1028C0005968BB68CB1AD2183B681A607B68181C21
:1028D000FFF7AAFF0023FB6001E00123FB60FEF786
:1028E000FFFDFB68181CBD4604B080BD8C1900209C
:1028F000A019002080B500AF024B01221A60BD462E
:1029000080BDC0469C19002080B582B000AF7860C1
:1029100000F04EF8034B1B68012B01D9FEF7C2FDF6
:10292000F6E7C046B418002080B582B000AF00239F
:102930007B600CE07A68131C9B009B189B00144A78
:102940009B18181CFEF72EFE7B6801337B607B68AA
:10295000042BEFD90F4B181CFEF724FE0E4B181C4E
:10296000FEF720FE0D4B181CFEF71CFE0C4B181C2E
:10297000FEF718FE0B4B181CFEF714FE0A4B054A17
:102980001A600A4B044A1A60BD4602B080BDC046B8
:10299000B4180020181900202C1900204819002014
:1029A0005C190020741900204019002044190020EF
:1029B00080B582B000AF27E0FFF7FCFC164B1B6828
:1029C0005A425341DBB27B60FFF700FD7B68002B6E
:1029D0001AD1FEF775FD104BDB68DB683B603B6886
:1029E0000433181CFEF75EFE0C4B1B685A1E0B4B83
:1029F0001A600B4B1B685A1E094B1A60FEF770FDDC
:102A00003B68181C00F00EF8054B1B68002BD3D157
:102A1000BD4602B080BDC0465C1900208819002068
:102A20007019002080B582B000AF78607B681B6BA6
:102A3000181CFEF7A3FB7B68181CFEF79FFBBD4626
:102A400002B080BD80B582B000AF0D4B1B681B6823
:102A5000002B01D1012300E00023002B04D0094BFF
:102A6000012252421A6008E0054B1B68DB68DB68F4
:102A70007B607B685A68034B1A60BD4602B080BD1C
:102A800040190020A819002080B582B000AF0A4B81
:102A90001B68002B02D101237B6008E0074B1B68F9
:102AA000002B02D102237B6001E000237B607B6866
:102AB000181CBD4602B080BD94190020B01900203A
:102AC00080B584B000AF78607B68FB607B68002BCA
:102AD0004AD0FB68DA6A264B1B68DB6A9A4243D20B
:102AE000FB689B69002B06DB214B1B68DB6A052218
:102AF000D21AFB689A61FB685969FB68DA6A131C91
:102B00009B009B189B001B4A9B18994201D10123F3
:102B100000E00023002B22D0FB680433181CFEF7D2
:102B2000C1FD134B1B68DA6AFB68DA62FB68DA6A7C
:102B3000114B1B689A4203D9FB68DA6A0E4B1A6084
:102B4000FB68DA6A131C9B009B189B00094A9A18C1
:102B5000FB680433101C191CFEF74CFD04E0044B09
:102B60001B68DA6AFB68DA62BD4604B080BDC04605
:102B7000B0180020B41800209019002080B584B04F
:102B800000AF78607B68BB600023FB607B68002B34
:102B900044D0254B1B68BA689A4201D072B6FEE752
:102BA000BB68DB6C002B01D172B6FEE7BB68DB6C47
:102BB0005A1EBB68DA64BB68DA6ABB689B6C9A42CF
:102BC0002CD0BB68DB6C002B28D1BB680433181CED
:102BD000FEF768FDBB689A6CBB68DA62BB68DB6AAB
:102BE0000522D21ABB689A61BB68DA6A0F4B1B6870
:102BF0009A4203D9BB68DA6A0C4B1A60BB68DA6A7E
:102C0000131C9B009B189B00094A9A18BB6804334D
:102C1000101C191CFEF7EEFC0123FB60FB68181C5E
:102C2000BD4604B080BDC046B018002090190020F9
:102C3000B418002080B500AF064B1B68002B04D0F1
:102C4000044B1B68DA6C0132DA64024B1B68181CF7
:102C5000BD4680BDB018002080B584B000AF78605C
:102C60003960214B1B68FB60204B1B680433181C28
:102C7000FEF718FD7B6801330BD13B68002B08D0B1
:102C80001A4B1B6804331A4A101C191CFEF7B2FCBD
:102C900026E0FA687B68D318BB60144B1B68BA68DF
:102CA0005A60BA68FB689A4209D2124B1A680F4BF5
:102CB0001B680433101C191CFEF7BEFC10E00E4B01
:102CC0001A680A4B1B680433101C191CFEF7B4FC6D
:102CD0000A4B1B68BA689A4202D2084BBA681A605B
:102CE000BD4604B080BDC0468C190020B01800203D
:102CF000741900204419002040190020A819002050
:102D000080B584B002AF00237B6000F08FFA0E4BD9
:102D10001B68002B0DD00D4A0D4B022100910D496F
:102D20000191101C191CB4220023FFF749F9031C60
:102D30007B607B68002B01D172B6FEE77B68181CB4
:102D4000BD4602B080BDC046E4190020792E0000C7
:102D5000A4440000E819002080B58AB000AFF860F4
:102D6000B9607A603B6000237B62FB68002B01D175
:102D700072B6FEE7224B1B68002B3BD03B1C143382
:102D8000BA681A603B1C14337A685A603B1C1433CF
:102D9000FA689A60BB68052B1FDCFFF775FE031C01
:102DA000022B0DD1164B19683A1C14323B6B081CD0
:102DB000111C1A1C0023FEF74BFD031C7B6219E05B
:102DC0000F4B1A683B1C1433101C191C00220023E3
:102DD000FEF73EFD031C7B620CE0094B19683A1CB0
:102DE00014323B68081C111C1A1C0023FEF700FE5D
:102DF000031C7B627B6A181CBD460AB080BDC046BE
:102E0000E419002080B586B002AF78603960194BB4
:102E10001B68DB68DB68FB60FB680433181CFEF78B
:102E200041FCFB68DB69012B1CD1FB689A697B685C
:102E3000D118F8683A687B6800F0BAF8031C002BD8
:102E400010D0FA687B6800210091101C00211A1C28
:102E50000023FFF781FF031CBB60BB68002B01D17F
:102E600072B6FEE7FB685B6AFA68101C9847BD46BD
:102E700004B080BDDC19002080B584B000AF78605C
:102E80003B1C0833181C00F053F8031CFB60BB68A4
:102E9000FA68101C191C00F003F800F0CBF8EFE7FB
:102EA00080B584B000AF78603960FFF783FA3B1CCF
:102EB0000833181C00F05CF8031CFB60BB68002B97
:102EC0002CD13B68002B0CD17A68FB689A4208D859
:102ED000FFF77CFA7A68FB68101C191CFFF792FF59
:102EE0001EE03B68002B06D00F4B1B681B685A4244
:102EF0005341DBB23B600D4B19687A68FB68D21A0C
:102F00003B68081C111C1A1CFFF722F8FFF75EFA39
:102F1000031C002B04D1FEF7C5FA01E0FFF756FAB7
:102F2000BD4604B080BDC046E0190020E419002071
:102F300080B584B000AF78600C4B1B681B685A42A8
:102F40005341DBB21A1C7B681A607B681B68002B3C
:102F500005D1064B1B68DB681B68FB6001E00023A2
:102F6000FB60FB68181CBD4604B080BDDC19002066
:102F700080B584B000AF7860FFF7B4FA031CFB6043
:102F80000A4B1B68FA689A4205D200F0F3F87B6896
:102F900001221A6002E07B6800221A60034BFA6883
:102FA0001A60FB68181CBD4604B080BDEC190020F7
:102FB00080B586B000AFF860B9607A603B600023EE
:102FC0007B61FB68BA685A60FB68FA681A61BA6884
:102FD0007B689A4212D87A683B68D21AFB689B6970
:102FE0009A4202D301237B611BE0104B1A68FB68F5
:102FF0000433101C191CFEF71FFB12E07A683B68B3
:103000009A4206D2BA683B689A4202D301237B6196
:1030100007E0074B1A68FB680433101C191CFEF705
:103020000BFB7B69181CBD4606B080BDE019002073
:10303000DC19002080B58CB002AF85E03B1C083362
:103040001B68002B11DA3B1C083304337B627B6A5C
:10305000002B01D172B6FEE77B6A1A687B6A596859
:103060007B6A9B68081C191C90473B1C08331B6833
:10307000002B69DB3B1C08339B683B623B6A5B6946
:10308000002B04D03B6A0433181CFEF70BFB3B1DDE
:10309000181CFFF76DFF031CFB613B1C08331B680A
:1030A000092B4ED89A00314BD3181B689F463B1C06
:1030B00008335A683B6A9B69D1183B1C08335B682C
:1030C000386AFA69FFF774FF031C002B1ED03B6AB5
:1030D0005B6A3A6A101C98473B6ADB69012B15D181
:1030E0003B1C08335A683B6A9B69D3183A6A002133
:1030F0000091101C00211A1C0023FFF72DFE031C59
:10310000BB61BB69002B01D172B6FEE71CE03B1C22
:1031100008335A683B6A9A613B6A9B69002B01D16C
:1031200072B6FEE73B6A9A69FB69D118386AFA6998
:10313000FB69FFF73DFF07E03B6A181CFEF71EF82E
:1031400002E0C04600E0C046094B1A683B1C083349
:10315000101C191C00220023FEF7C0FC031C002BCE
:1031600000D06BE7BD460AB080BDC046DC48000019
:10317000E419002080B588B002AF40E0294B1B68FD
:10318000DB681B687B61274B1B68DB68DB683B6186
:103190003B690433181CFEF785FA3B695B6A3A69A0
:1031A000101C98473B69DB69012B28D13B699A6960
:1031B0007B69D318FB60FA687B699A420ED93B6938
:1031C000FA685A603B693A691A61164B1A683B699A
:1031D0000433101C191CFEF72FFA10E03A697B69C2
:1031E00000210091101C00211A1C0023FFF7B4FDE0
:1031F000031CBB60BB68002B01D172B6FEE7094B14
:103200001B681B68002BB9D1064B1B687B60064B03
:103210001A68044B1A60044B7A681A60BD4606B0FF
:1032200080BDC046DC190020E019002080B500AF49
:10323000FEF746F9144B1B68002B20D1134B181CCA
:10324000FEF7B0F9124B181CFEF7ACF9114B0F4A00
:103250001A60114B0E4A1A600A2010210022FEF754
:103260009FFA021C084B1A60074B1B68002B06D004
:10327000054B1A68094B101C191CFEF743FEFEF79C
:103280002FF9BD4680BDC046E4190020B4190020C6
:10329000C8190020DC190020E0190020AC4400000F
:1032A00080B582B000AF7860074B074A1168074AC3
:1032B00011407A689004C022120302400A431A6047
:1032C000BD4602B080BDC04600700440FFFFF3FF62
:1032D00080B582B000AF7860064A7B685968064BBB
:1032E000D1507B681B78181CFFF7DAFFBD4602B08F
:1032F00080BDC046007004404410000080B500AF9F
:103300000A4B1B7EDBB2DBB25BB2002B07DB074B49
:103310009B79DBB21A1C0C2313409B0801D1044B90
:1033200000E00023181CBD4680BDC046004006409A
:10333000006CDC0280B582B000AF78607B68002B47
:1033400006D14148AC235900404A414B00F084F873
:10335000404B9B79DBB21A1C0C2313409B08012BBA
:103360001ED17B681B78012B1AD13A4B5B78DBB2FC
:103370001A1C01231A407B689B789A4210D0354B67
:10338000344A1278D1B23F220A40D2B21A70C046F3
:10339000304B9B79DBB21A1C0C2313409B08F7D1EE
:1033A0002C4A7B68DB78DB18D9B20E230B40DBB2EA
:1033B0001372284B7A685279D201D1B27A681079A7
:1033C00007220240D2B20A43D2B21A76214B214AD6
:1033D0005278D2B201218A43D1B27A689078012220
:1033E0000240D2B20A43D2B25A701A4B7A681278AB
:1033F0009201D1B27A6852780A43D2B21A70154B50
:103400005B78DBB21A1C042313400BD07B681B785B
:10341000022B07D1C0460F4B9B79DBB21A1C02234B
:103420001340F8D0C0467B681B781A1C094B9B7967
:10343000DBB2191C0C230B409B089A42F3D10023EA
:10344000181CBD4602B080BDB44400000449000011
:10345000E84400000040064090B587B002AFF86035
:10346000B9607A603B6005483968FA68BB687C6877
:103470000094FDF745FA00BEFDE7C046F8440000A1
:1034800080B584B000AFF860B9607A60BB68032B88
:1034900007D91048DA23191CFF310F4A0F4BFFF7E9
:1034A000DBFF7B68002B12D0F968BA6884235B00CD
:1034B00012018A18D3181B68802252041A43F86834
:1034C000B96884235B0009014118CB181A60BD4616
:1034D00004B080BD384500002C4900005045000074
:1034E00080B582B000AF78607B68002B06D11148B0
:1034F0008D235900104A114BFFF7AEFF7B68196806
:103500007B681B791A1C80235B04081C111C1A1C85
:10351000FFF7B6FF7B689B68002B07D07B689A6833
:103520007B68DB687968081C191C9047BD4602B0AF
:1035300080BDC0467C4500001C490000CC45000011
:1035400080B500AF034B1B68181CFFF7C9FFBD46D1
:1035500080BDC046F019002080B500AF034B5B680A
:10356000181CFFF7BDFFBD4680BDC046F019002006
:1035700080B500AF034B9B68181CFFF7B1FFBD4639
:1035800080BDC046F019002080B500AF034BDB685A
:10359000181CFFF7A5FFBD4680BDC046F0190020EE
:1035A00080B582B000AFFB1D00221A701DE0FB1D2C
:1035B0001A78114B9200D358002B11D0FB1D1A78AA
:1035C0000E4B9200D358FA1D11780D4A8900895884
:1035D000FA1D1078084A80008258081C111C984770
:1035E000FB1D1A78FB1D01321A70FB1D1B78012B85
:1035F000DDD9BD4602B080BD001A0020101A00209F
:10360000081A002080B500AFFFF7CAFFBD4680BD95
:1036100080B584B000AFF860B960FB1D1A70FB1D67
:103620001B78002B05D1BB6801229A40FB689A6089
:1036300004E0BB6801229A40FB685A60BD4604B0B2
:1036400080BDC04680B584B000AFF860B9607A60D4
:103650007B68002B06D11649164A174B081C4B21D4
:10366000FFF7FAFE7B681B78002B0BD1FB685B69C8
:10367000BA680121081C9040021CD2431A40FB6822
:103680005A6112E07B685B78F968BA68081C111C03
:103690001A1CFFF7BDFFFB685A69BB680121081CB3
:1036A0009840031C1A43FB685A61BD4604B080BDB4
:1036B0007846000048490000B846000080B582B056
:1036C00000AF786039607B68DB78DBB21A1C1023AE
:1036D000134006D17B689B78DBB21A1C2023134071
:1036E00007D00A4B1B6879683A68081C111C984778
:1036F00006E0074B1B6879683A68081C111C98475C
:10370000BFF34F8FBD4602B080BDC046201A0020D7
:10371000241A002080B500AF044B1B68044A101C1B
:10372000191CFFF7CBFFBD4680BDC046181A00200C
:103730000060064080B500AF044B5B68044A101C73
:10374000191CFFF7BBFFBD4680BDC046181A0020FC
:103750000070064090B585B000AF78607B681B0CA8
:10376000084A9B18FB60FB68FA6811687A681204C3
:10377000120C0120041C9440221C0A431A60BD460E
:1037800005B090BD0070044080B584B000AF786093
:103790000023FB600AE00E4BFA689200D2587B6867
:1037A0009A4200D105E0FB680133FB60FB68012B06
:1037B000F1D9FB68012B06D90649074A074B081CBB
:1037C0008D21FFF749FEFB68181CBD4604B080BD83
:1037D00058490000C046000068490000D846000073
:1037E00090B58DB000AFF860B9607A60BB68002B0F
:1037F00006D19749974A984B081CE421FFF72CFE05
:10380000BB681B68002B06D19149924A934B081C58
:10381000E521FFF721FEBB681B68BB6100237B62CB
:103820003B1C2A3300221A8004233B625DE0BB6804
:103830001B683A6A53437868191CFCF7B9FE031CED
:103840001A1C3B1C28331A803B1C28331B88002B76
:1038500003D13B1C283301221A803B1C28331B88D0
:103860003A6A53437868191CFCF7A2FE031C7B617B
:10387000BB681B687A69D31AFB61BB681C683B1C78
:1038800028331B8801333A6A53437868191CFCF7C4
:103890008FFE031CE21AFB699A4215D2BB681C68B2
:1038A0003B1C28331B8801333A6A53437868191C40
:1038B000FCF77EFE031CE31AFB613B1C28331A88CD
:1038C0003B1C283301321A80FA69BB699A4209D835
:1038D000FB69BB613B6A7B623B1C2A333A1C283282
:1038E00012881A803B6A01333B623B6A202B9ED9C7
:1038F000BB681B68181C6421FCF75AFE031C1A1CC9
:10390000131C5B009A18BB699A4201D2544B9BE08E
:10391000FB68181CFFF738FF021C524B9200D3586B
:10392000181CFFF717FFFB689A684F4B1A40FB689B
:103930009A60FB681B68FB627B6A032B07D97B6A72
:10394000072B04D8FB6A802292021343FB62FA6AB7
:10395000464B1340FB627B6A013B1A06F8235B056A
:103960001340FA6A1343FB62FB6A5B0B5B03FB6267
:103970003B1C2A331B88DB04DA0CFB6A1A43FB6806
:103980001A60FB681A683A4B1A40FB681A60FB68B9
:103990009B6813229343FB62BB681B79FA6A13434B
:1039A000FB62BB681B79002B03D0FB6A1022134318
:1039B000FB62FB68FA6A9A60FB681A682D4B134039
:1039C000FB62BB68DB795A0380239B011A40FB6AC8
:1039D0001A43FB681A60284BFB62FB6A80221206BE
:1039E0001343FB62FB6AC02212021343FB62BB68F3
:1039F0009B79002B05D0FB6A802292051343FB6262
:103A000003E0FA6A1A4B1340FB62FB685A68FB6AD0
:103A10001A43FB685A60FB689B68FB62BB681B7AB1
:103A2000002B04D0FB6A802212031343FB62BB68A5
:103A30005B7A002B04D0FB6A8022D2021343FB6224
:103A4000FB68FA6A9A600023181CBD460DB090BD51
:103A5000C04600007C4900001047000018470000E5
:103A60002105000060490000FFFFF3FFFFFFFFE0BA
:103A7000FFFFFFDFFFDFFFFF00001F4080B582B0C8
:103A800000AF78607B68002B06D11048DD23590019
:103A90000F4A104BFFF7E0FC7B68E12252021A60EC
:103AA0007B6800221A717B6800225A717B680022B1
:103AB0009A717B680022DA717B6800221A727B6837
:103AC00000225A72BD4602B080BDC046C04600000A
:103AD000884900001047000080B584B000AF7860CE
:103AE0007B685B68FB60FB68181CBD4604B080BD4A
:103AF00080B584B000AF786039607B685B68BB607C
:103B0000BB685B005B08BB603B68DB0FDB07BA6828
:103B10001343BB60BA68144B1340BB603A68134B45
:103B20001340BA681343BB60BA68114B1340BB60C3
:103B30003A68C0231B021340BA681343BB607B681A
:103B4000BA685A607B68181CFFF7C6FF031C3A6806
:103B5000134002D0074BFB6001E00023FB60FB68D1
:103B6000181CBD4604B080BDFFFFE0BF00001F4031
:103B7000FF3FFFFF1A05000080B584B000AFF8607A
:103B8000B9607A60BB68002B05D10E480E490F4A18
:103B90000F4BFFF761FC0DE0C046FB685A688023BD
:103BA0001B041340F9D0BB685A1CBA601B781A1C5E
:103BB000FB68DA607B685A1E7A60002BECD1BD4648
:103BC00004B080BDC046000079020000A04900009A
:103BD0000847000080B586B000AFF860B9607A6031
:103BE000BB68002B06D12F48A22399002E4A2F4BE9
:103BF000FFF732FC4CE03EE0FB68181CFFF76CFF5F
:103C0000031C7B617A6980231B03134008D0FA6888
:103C100080231B03101C191CFFF76AFF244B3DE097
:103C20007A698023DB02134008D0FA688023DB0224
:103C3000101C191CFFF75CFF1E4B2FE07A698023D4
:103C40009B02134008D0FA6880239B02101C191CA9
:103C5000FFF74EFF184B21E07A6980235B02134087
:103C600009D0FA6880235B02101C191CFFF740FF83
:103C7000A423DB0012E0FB685A6880239B031340F7
:103C8000BAD0BB685A1CBA60FA68D268D2B21A704D
:103C90007B685A1E7A60002BADD10023181CBD46EC
:103CA00006B080BDC0460000B849000008470000CB
:103CB0001D0500001E0500001F05000080B500AFB7
:103CC000044B1A68044B1B680449081C191C9047D4
:103CD000BD4680BD301A0020281A00200040054053
:103CE00080B500AF044B1A68044B5B680449081C9C
:103CF000191C9047BD4680BD301A0020281A0020AC
:103D00000050054080B582B000AF786039607B68B4
:103D1000DB78DBB21A1C102313400AD00B4B1B6854
:103D20000B4A396889008A587968081C111C984721
:103D300009E0084B1B68064A396889008A58796887
:103D4000081C111C9847BD4602B080BD3C1A0020DB
:103D5000341A0020401A002080B500AF084B1B68C1
:103D6000002B06D10748F9239900074A074BFFF7B4
:103D700073FB074B181C0021FFF7C4FFBD4680BD35
:103D8000341A002078470000CC490000F8470000B2
:103D90000060074080B500AF084B5B68002B06D180
:103DA0000748FB239900074A074BFFF755FB074BD2
:103DB000181C0121FFF7A6FFBD4680BD341A002064
:103DC00078470000E4490000084800000070074000
:103DD00090B585B000AF78607B681B0C084A9B18D3
:103DE000FB60FB68FA6811687A681204120C012003
:103DF000041C9440221C0A431A60BD4605B090BDC5
:103E00000070044080B584B000AF78600323BB60CD
:103E10000023FB600AE00F4BFA689200D2587B68DF
:103E20009A4200D106E0FB680133FB60FA68BB6888
:103E30009A42F0D3FA68BB689A4206D30649074A09
:103E4000074B081CA921FFF707FBFB68181CBD46A0
:103E500004B080BDFC49000018480000144A00006E
:103E60003048000080B588B000AFF860B9607A6073
:103E7000BB68002B06D17A497A4A7B4B081CD421B7
:103E8000FFF7EAFABB681B68002B06D17449754A34
:103E9000764B081CD521FFF7DFFA3B1C1E330022AE
:103EA0001A803B1C1D3300221A700023BB61BB68C3
:103EB0001B681B017868191CFCF77AFB031C1A1C91
:103EC0003B1C1E331A803B1C1E331B88002B03D166
:103ED0003B1C1E3301221A8000237B617B685A0041
:103EE000BB681B68101C191CFCF762FB031C99B211
:103EF0003B1C1E331B882022524253439AB23B1C68
:103F000012338A181A807B685A003B1C1E331B88A8
:103F100059013B1C12331B88CB18101C191CFCF7D1
:103F200047FB031C7B61BB681A687B699A4204D219
:103F3000BB681B687A69D31A03E0BB681A687B699F
:103F4000D31ABB61BB681B68181C6421FCF730FBEB
:103F5000031C1A1C131C5B009A18BB699A4201D2FD
:103F6000434B79E0FB68181CFFF74CFF021C414BE8
:103F70009200D358181CFFF72BFFFB68DB78DBB2ED
:103F80000C229343DAB2FB68DA70FB681B78DBB271
:103F90001F229343DAB23B1C1E331B881B0A9BB2C1
:103FA000DBB21343DAB2FB681A703B1C1E331B886A
:103FB000DAB2FB685A70FB689B7ADBB21F2293432C
:103FC000DAB23B1C12331B88D9B21F230B40DBB281
:103FD0001343DAB2FB689A72FB689B78DAB23B1C37
:103FE0001D3313218A431A70BB681B79002B0BD039
:103FF000BB681A793B1C1D331B781343DAB23B1C98
:104000001D3310210A431A70FB683A1C1D321278C6
:104010009A703B1C1D33FA68D2781A70BB685B79C2
:10402000002B07D03B1C1D333A1C1D32127808218F
:104030000A431A70BB689B79002B07D03B1C1D33C9
:104040003A1C1D32127804210A431A70FB683A1C8C
:104050001D321278DA700023181CBD4608B080BDEE
:1040600018480000284A0000544800005C4800003E
:10407000F5030000084A000080B582B000AF786008
:104080007B68002B07D10C485E23191CFF310B4ABB
:104090000B4BFFF7E1F97B68E12252021A607B6863
:1040A00000221A717B6800225A717B6800229A7183
:1040B000BD4602B080BDC04618480000344A00002A
:1040C0005448000080B584B000AF78607B681B79ED
:1040D000DBB21A1C7B685B79DBB21B021343FB600B
:1040E000FB68181CBD4604B080BDC04680B584B0D6
:1040F00000AFF860B9607A600DE0C046FB681B79DC
:10410000DBB2DBB25BB2002BF8DABB685A1CBA60D8
:104110001A78FB68DA717B685A1E7A60002BECD142
:10412000BD4604B080BDC04680B586B000AFF86023
:10413000B9607A60BB68002B06D120488F239900B4
:104140001F4A204BFFF788F92DE01EE0FB68181C82
:10415000FFF7B8FF031C7B617A690823134001D085
:10416000194B26E07A690423134001D0174B20E055
:104170007A690223134001D0154B1AE07A690123B2
:10418000134002D0FD239B0013E0FB681B79DBB2D8
:104190001A1C20231340D9D0BB685A1CBA60FA6895
:1041A000D279D2B21A707B685A1E7A60002BCCD1B9
:1041B0000023181CBD4606B080BDC046184800004C
:1041C0004C4A000084480000F1030000F2030000A4
:1041D000F303000080B582B000AF7860084A084958
:1041E000084BC958084B19407B689806C0231B052B
:1041F00003401943034BD150BD4602B080BDC046B9
:104200000070044004100000FFFFFFF380B582B08F
:1042100000AF0120FFF7DEFFFFF770F8031C7B60A3
:104220000549E1235A027B68081C111C0222FCF795
:10423000EBFABD4602B080BD0040054080B500AF3E
:10424000024A034B0349D150BD4680BD0070044073
:10425000441000000000031080B584B000AF3A1C89
:104260000832104B111C1A1C0623081C111C1A1CA6
:1042700000F0D2F83B1C00221A703B1C8022520234
:104280005A60FFF7DBFF3B1C0833181CFFF752F89E
:104290003B1C181CFFF71CF8034B044A1A60BD4670
:1042A00004B080BDCC48000000F0FF1F006CDC02B1
:1042B00090B585B000AF78607B681B0C084A9B18EE
:1042C000FB60FB68FA6811687A681204120C01201E
:1042D000041C9440221C0A431A60BD4605B090BDE0
:1042E0000070044080B584B000AFF860B960FB1D79
:1042F0001A70FB68BA689200D258084B1A40FB1D2E
:104300001B781902E023DB000B40111C1943FB68EA
:10431000BA689200D150BD4604B080BDFFF8FFFFDF
:1043200080B500AF184B181CFFF7C2FF174B181CC5
:10433000FFF7BEFF164B181C0D210122FFF7D2FF1D
:10434000144B181C12210122FFF7CCFF114B181C33
:1043500013210122FFF7C6FF0D4B181C0121022279
:10436000FFF7C0FF0A4B181C02210222FFF7BAFF19
:10437000094A0949094BCB580721181C8843011CDD
:10438000064BD150BD4680BD090038100A003810D8
:104390000090044000A00440007004401010000091
:1043A000084B10B5041C002B02D0002100E000BF18
:1043B000054B1868836A002B00D09847201C00F03A
:1043C00043F8C04600000000644A000070B50E4B80
:1043D0000E4D0024ED1AAD101E1CAC4204D0A300FB
:1043E000F35898470134F8E700F03EFB084B094DBD
:1043F0000024ED1AAD101E1CAC4204D0A300F358EB
:1044000098470134F8E770BD884A0000884A0000E8
:10441000884A00008C4A000010B50023934203D064
:10442000CC5CC4540133F9E710BD031C82189342DD
:1044300002D019700133FAE770470023C25C0133E0
:10444000002AFBD1581E7047FEE7C04648656C6CD9
:104450006F6F20776F726C642E25640D0A00000068
:1044600048656C6C6F5F7461736B0000496E6974B2
:104470005F7461736B0000005461736B5F626C75F5
:10448000650000005461736B5F726564000000009A
:104490005461736B5F677265656E000049444C45FB
:1044A00000000000546D722053766300546D725109
:1044B000000000002E2E2F647269766572732F66DD
:1044C000736C5F636C6F636B2E630000675F78745F
:1044D000616C304672657100675F7874616C33326D
:1044E0004672657100000000746172676574436F05
:1044F0006E666967000000004153534552542045E1
:1045000052524F52202220257320223A2066696C95
:10451000652022257322204C696E652022256422A5
:104520002066756E6374696F6E206E616D65202202
:10453000257322200A0000002E2E2F6472697665F2
:1045400072732F66736C5F646D612E6800000000EB
:104550006368616E6E656C203C2046534C5F464537
:1045600041545552455F444D414D55585F4D4F4460
:10457000554C455F4348414E4E454C002E2E2F640E
:104580007269766572732F66736C5F646D612E63FA
:1045900000000000696E7374616E6365203C204604
:1045A000534C5F464541545552455F534F435F441A
:1045B0004D415F434F554E5400000000636F6E66DF
:1045C000696720213D204E554C4C000068616E64A7
:1045D0006C6520213D204E554C4C000073726341A8
:1045E00064647220213D204E554C4C006465737408
:1045F0004164647220213D204E554C4C0000000067
:10460000287372635769647468203D3D20315529D1
:10461000207C7C20287372635769647468203D3D58
:1046200020325529207C7C2028737263576964747A
:1046300068203D3D20345529000000002864657342
:10464000745769647468203D3D20315529207C7C75
:104650002028646573745769647468203D3D203276
:104660005529207C7C2028646573745769647468BC
:10467000203D3D20345529002E2E2F647269766529
:1046800072732F66736C5F6770696F2E6300000032
:10469000696E7374616E6365203C2046534C5F46BF
:1046A0004541545552455F534F435F4750494F5F13
:1046B000434F554E54000000636F6E6669670000FB
:1046C0002E2E2F647269766572732F66736C5F6C21
:1046D00070756172742E6300696E7374616E6365C8
:1046E000203C2046534C5F464541545552455F534C
:1046F0004F435F4C50554152545F434F554E540009
:1047000068616E646C6500006461746100000000A3
:10471000636F6E6669670000636F6E6669672D3E42
:1047200062617564526174655F42707300000000DD
:1047300062617564526174655F42707300000000CD
:1047400072696E67427566666572000078666572AA
:1047500000000000786665722D3E6461746100009F
:10476000786665722D3E6461746153697A650000F4
:10477000636F756E740000002E2E2F64726976656B
:1047800072732F66736C5F7370692E630000000094
:10479000696E7374616E6365203C2046534C5F46BE
:1047A0004541545552455F534F435F5350495F4312
:1047B0004F554E5400000000636F6E6669672026F7
:1047C0002620737263436C6F636B5F487A0000004E
:1047D000636F6E66696700007866657200000000AE
:1047E00068616E646C65000068616E646C652026AB
:1047F0002620786665720000735F73706948616E89
:10480000646C655B305D0000735F73706948616E56
:10481000646C655B315D00002E2E2F6472697665D5
:1048200072732F66736C5F756172742E6300000083
:10483000696E7374616E6365203C207561727441AA
:1048400072726179436F756E7400000068616E6406
:104850006C650000636F6E6669670000636F6E666B
:1048600069672D3E62617564526174655F42707361
:104870000000000062617564526174655F4270738C
:1048800000000000646174610000000072696E67DE
:104890004275666665720000786665720000000009
:1048A000786665722D3E6461746153697A650000B3
:1048B000786665722D3E646174610000636F756E89
:1048C000740000000102000000000000000201006E
:1048D000000100000080000000048000AE300000F5
:1048E000AE300000AE300000463100000E31000056
:1048F00038310000AE300000AE300000463100001C
:104900000E310000434C4F434B5F5365744D63675A
:104910006C697465436F6E6669670000444D415F62
:1049200048616E646C65495251000000444D415F1E
:10493000436C6561724368616E6E656C537461743B
:104940007573466C616773004750494F5F50696EDD
:10495000496E6974000000000040054000500540A9
:1049600014003810150038104C50554152545F4710
:104970006574496E7374616E636500004C505541F7
:1049800052545F496E6974004C50554152545F4710
:10499000657444656661756C74436F6E6669670023
:1049A0004C50554152545F5772697465426C6F6345
:1049B0006B696E67000000004C50554152545F52C5
:1049C000656164426C6F636B696E67005350493078
:1049D0005F44726976657249525148616E646C65D4
:1049E00072000000535049315F4472697665724924
:1049F000525148616E646C65720000000000000056
:104A00000000000000C006400000000000000000A0
:104A10000C003410554152545F476574496E7374ED
:104A2000616E636500000000554152545F496E6934
:104A300074000000554152545F47657444656661D7
:104A4000756C74436F6E666967000000554152547F
:104A50005F52656164426C6F636B696E6700000052
:104A60004300000008F0FF1FF8B5C046F8BC08BCC2
:104A70009E467047F8B5C046F8BC08BC9E467047D5
:084A8000F0B9FF7F0100000006
:044A880039040000ED
:044A8C001104000011
:104A900000127A00AAAAAAAA0000000000000000E2
:104AA0000000000000000000000000000000000006
:104AB0000000000000000000604A0000000000004C
:104AC00000000000000000000000000000000000E6
:104AD00000000000000000000000000000000000D6
:104AE00000000000000000000000000000000000C6
:0C4AF000000000000000000000000000BA
:04000003000004E90C
:00000001FF
